{
  "contractName": "MultiSigWallet",
  "abi": [
    {
      "inputs": [
        {
          "internalType": "address[]",
          "name": "_owners",
          "type": "address[]"
        },
        {
          "internalType": "uint256",
          "name": "_numConfirmationRequired",
          "type": "uint256"
        }
      ],
      "stateMutability": "payable",
      "type": "constructor"
    },
    {
      "anonymous": false,
      "inputs": [
        {
          "indexed": true,
          "internalType": "address",
          "name": "owner",
          "type": "address"
        },
        {
          "indexed": true,
          "internalType": "uint256",
          "name": "txIndex",
          "type": "uint256"
        }
      ],
      "name": "ConfirmTransaction",
      "type": "event"
    },
    {
      "anonymous": false,
      "inputs": [
        {
          "indexed": true,
          "internalType": "address",
          "name": "sender",
          "type": "address"
        },
        {
          "indexed": false,
          "internalType": "uint256",
          "name": "amount",
          "type": "uint256"
        },
        {
          "indexed": false,
          "internalType": "uint256",
          "name": "balance",
          "type": "uint256"
        }
      ],
      "name": "Deposit",
      "type": "event"
    },
    {
      "anonymous": false,
      "inputs": [
        {
          "indexed": true,
          "internalType": "address",
          "name": "owner",
          "type": "address"
        },
        {
          "indexed": true,
          "internalType": "uint256",
          "name": "txIndex",
          "type": "uint256"
        }
      ],
      "name": "ExecuteTransaction",
      "type": "event"
    },
    {
      "anonymous": false,
      "inputs": [
        {
          "indexed": true,
          "internalType": "address",
          "name": "owner",
          "type": "address"
        },
        {
          "indexed": true,
          "internalType": "uint256",
          "name": "txIndex",
          "type": "uint256"
        }
      ],
      "name": "RevokeConfirmation",
      "type": "event"
    },
    {
      "anonymous": false,
      "inputs": [
        {
          "indexed": true,
          "internalType": "address",
          "name": "owner",
          "type": "address"
        },
        {
          "indexed": true,
          "internalType": "uint256",
          "name": "txIndex",
          "type": "uint256"
        },
        {
          "indexed": true,
          "internalType": "address",
          "name": "to",
          "type": "address"
        },
        {
          "indexed": false,
          "internalType": "uint256",
          "name": "value",
          "type": "uint256"
        },
        {
          "indexed": false,
          "internalType": "bytes",
          "name": "data",
          "type": "bytes"
        }
      ],
      "name": "SubmitTransaction",
      "type": "event"
    },
    {
      "stateMutability": "payable",
      "type": "fallback"
    },
    {
      "inputs": [
        {
          "internalType": "address",
          "name": "",
          "type": "address"
        }
      ],
      "name": "isOwner",
      "outputs": [
        {
          "internalType": "bool",
          "name": "",
          "type": "bool"
        }
      ],
      "stateMutability": "view",
      "type": "function"
    },
    {
      "inputs": [],
      "name": "numConfirmationRequired",
      "outputs": [
        {
          "internalType": "uint256",
          "name": "",
          "type": "uint256"
        }
      ],
      "stateMutability": "view",
      "type": "function"
    },
    {
      "inputs": [
        {
          "internalType": "uint256",
          "name": "",
          "type": "uint256"
        }
      ],
      "name": "owners",
      "outputs": [
        {
          "internalType": "address",
          "name": "",
          "type": "address"
        }
      ],
      "stateMutability": "view",
      "type": "function"
    },
    {
      "inputs": [],
      "name": "transactionIndex",
      "outputs": [
        {
          "internalType": "uint256",
          "name": "",
          "type": "uint256"
        }
      ],
      "stateMutability": "view",
      "type": "function"
    },
    {
      "inputs": [
        {
          "internalType": "uint256",
          "name": "",
          "type": "uint256"
        }
      ],
      "name": "transactions",
      "outputs": [
        {
          "internalType": "address",
          "name": "to",
          "type": "address"
        },
        {
          "internalType": "uint256",
          "name": "value",
          "type": "uint256"
        },
        {
          "internalType": "bytes",
          "name": "data",
          "type": "bytes"
        },
        {
          "internalType": "bool",
          "name": "executed",
          "type": "bool"
        },
        {
          "internalType": "uint256",
          "name": "numConfirmations",
          "type": "uint256"
        },
        {
          "internalType": "bool",
          "name": "exists",
          "type": "bool"
        }
      ],
      "stateMutability": "view",
      "type": "function"
    },
    {
      "inputs": [
        {
          "internalType": "address",
          "name": "_to",
          "type": "address"
        },
        {
          "internalType": "uint256",
          "name": "_value",
          "type": "uint256"
        },
        {
          "internalType": "bytes",
          "name": "_data",
          "type": "bytes"
        }
      ],
      "name": "submitTransaction",
      "outputs": [],
      "stateMutability": "nonpayable",
      "type": "function"
    },
    {
      "inputs": [
        {
          "internalType": "uint256",
          "name": "_txIndex",
          "type": "uint256"
        }
      ],
      "name": "confirmTransaction",
      "outputs": [],
      "stateMutability": "nonpayable",
      "type": "function"
    },
    {
      "inputs": [
        {
          "internalType": "uint256",
          "name": "_txIndex",
          "type": "uint256"
        }
      ],
      "name": "executeTransaction",
      "outputs": [],
      "stateMutability": "nonpayable",
      "type": "function"
    },
    {
      "inputs": [
        {
          "internalType": "uint256",
          "name": "_txIndex",
          "type": "uint256"
        }
      ],
      "name": "revokeConfirmation",
      "outputs": [],
      "stateMutability": "nonpayable",
      "type": "function"
    }
  ],
  "bytecode": "0x6080604052604051620021503803806200215083398181016040528101906200002991906200055a565b600082519050600081141562000076576040517f08c379a00000000000000000000000000000000000000000000000000000000081526004016200006d9062000621565b60405180910390fd5b60008211620000bc576040517f08c379a0000000000000000000000000000000000000000000000000000000008152600401620000b390620006b9565b60405180910390fd5b8082111562000102576040517f08c379a0000000000000000000000000000000000000000000000000000000008152600401620000f99062000777565b60405180910390fd5b60005b818110156200032057600073ffffffffffffffffffffffffffffffffffffffff168482815181106200013c576200013b62000799565b5b602002602001015173ffffffffffffffffffffffffffffffffffffffff1614156200019e576040517f08c379a000000000000000000000000000000000000000000000000000000000815260040162000195906200083e565b60405180910390fd5b6001151560026000868481518110620001bc57620001bb62000799565b5b602002602001015173ffffffffffffffffffffffffffffffffffffffff1673ffffffffffffffffffffffffffffffffffffffff16815260200190815260200160002060009054906101000a900460ff161515146200030a5760008482815181106200022c576200022b62000799565b5b60200260200101519080600181540180825580915050600190039060005260206000200160009091909190916101000a81548173ffffffffffffffffffffffffffffffffffffffff021916908373ffffffffffffffffffffffffffffffffffffffff160217905550600160026000868481518110620002b057620002af62000799565b5b602002602001015173ffffffffffffffffffffffffffffffffffffffff1673ffffffffffffffffffffffffffffffffffffffff16815260200190815260200160002060006101000a81548160ff0219169083151502179055505b808062000317906200088f565b91505062000105565b5081600181905550505050620008dd565b6000604051905090565b600080fd5b600080fd5b600080fd5b6000601f19601f8301169050919050565b7f4e487b7100000000000000000000000000000000000000000000000000000000600052604160045260246000fd5b62000395826200034a565b810181811067ffffffffffffffff82111715620003b757620003b66200035b565b5b80604052505050565b6000620003cc62000331565b9050620003da82826200038a565b919050565b600067ffffffffffffffff821115620003fd57620003fc6200035b565b5b602082029050602081019050919050565b600080fd5b600073ffffffffffffffffffffffffffffffffffffffff82169050919050565b6000620004408262000413565b9050919050565b620004528162000433565b81146200045e57600080fd5b50565b600081519050620004728162000447565b92915050565b60006200048f6200048984620003df565b620003c0565b90508083825260208201905060208402830185811115620004b557620004b46200040e565b5b835b81811015620004e25780620004cd888262000461565b845260208401935050602081019050620004b7565b5050509392505050565b600082601f83011262000504576200050362000345565b5b81516200051684826020860162000478565b91505092915050565b6000819050919050565b62000534816200051f565b81146200054057600080fd5b50565b600081519050620005548162000529565b92915050565b600080604083850312156200057457620005736200033b565b5b600083015167ffffffffffffffff81111562000595576200059462000340565b5b620005a385828601620004ec565b9250506020620005b68582860162000543565b9150509250929050565b600082825260208201905092915050565b7f4e6f206f776e6572732073706563696669656400000000000000000000000000600082015250565b600062000609601383620005c0565b91506200061682620005d1565b602082019050919050565b600060208201905081810360008301526200063c81620005fa565b9050919050565b7f5265717569726564204e756d626572206f6620436f6e6669726d6174696f6e2060008201527f73686f756c642062652067726561746572207468616e20300000000000000000602082015250565b6000620006a1603883620005c0565b9150620006ae8262000643565b604082019050919050565b60006020820190508181036000830152620006d48162000692565b9050919050565b7f5265717569726564204e756d626572206f6620436f6e6669726d6174696f6e2060008201527f73686f756c64206265206c657373207468616e204e756d626572206f66204f7760208201527f6e65727300000000000000000000000000000000000000000000000000000000604082015250565b60006200075f604483620005c0565b91506200076c82620006db565b606082019050919050565b60006020820190508181036000830152620007928162000750565b9050919050565b7f4e487b7100000000000000000000000000000000000000000000000000000000600052603260045260246000fd5b7f4f776e65722073686f756c64206e6f742062652061742061646472657373203060008201527f2100000000000000000000000000000000000000000000000000000000000000602082015250565b600062000826602183620005c0565b91506200083382620007c8565b604082019050919050565b60006020820190508181036000830152620008598162000817565b9050919050565b7f4e487b7100000000000000000000000000000000000000000000000000000000600052601160045260246000fd5b60006200089c826200051f565b91507fffffffffffffffffffffffffffffffffffffffffffffffffffffffffffffffff821415620008d257620008d162000860565b5b600182019050919050565b61186380620008ed6000396000f3fe60806040526004361061008a5760003560e01c80639b6a34d3116100595780639b6a34d3146101c2578063b8220f6a146101ed578063c01a8c8414610218578063c642747414610241578063ee22610b1461026a5761008b565b8063025e7c27146100dd57806320ea8d861461011a5780632f54bf6e146101435780639ace38c2146101805761008b565b5b3373ffffffffffffffffffffffffffffffffffffffff167f90890809c654f11d6e72a28fa60149770a0d11ec6c92319d6ceb2bb0a4ea1a1534476040516100d3929190610f0a565b60405180910390a2005b3480156100e957600080fd5b5061010460048036038101906100ff9190610f73565b610293565b6040516101119190610fe1565b60405180910390f35b34801561012657600080fd5b50610141600480360381019061013c9190610f73565b6102d2565b005b34801561014f57600080fd5b5061016a60048036038101906101659190611028565b61058a565b6040516101779190611070565b60405180910390f35b34801561018c57600080fd5b506101a760048036038101906101a29190610f73565b6105aa565b6040516101b996959493929190611124565b60405180910390f35b3480156101ce57600080fd5b506101d76106a8565b6040516101e4919061118c565b60405180910390f35b3480156101f957600080fd5b506102026106ae565b60405161020f919061118c565b60405180910390f35b34801561022457600080fd5b5061023f600480360381019061023a9190610f73565b6106b4565b005b34801561024d57600080fd5b50610268600480360381019061026391906112dc565b61098d565b005b34801561027657600080fd5b50610291600480360381019061028c9190610f73565b610b8e565b005b600081815481106102a357600080fd5b906000526020600020016000915054906101000a900473ffffffffffffffffffffffffffffffffffffffff1681565b600260003373ffffffffffffffffffffffffffffffffffffffff1673ffffffffffffffffffffffffffffffffffffffff16815260200190815260200160002060009054906101000a900460ff1661035e576040517f08c379a0000000000000000000000000000000000000000000000000000000008152600401610355906113a8565b60405180910390fd5b806004600082815260200190815260200160002060060160009054906101000a900460ff166103c2576040517f08c379a00000000000000000000000000000000000000000000000000000000081526004016103b990611414565b60405180910390fd5b816004600082815260200190815260200160002060030160009054906101000a900460ff1615610427576040517f08c379a000000000000000000000000000000000000000000000000000000000815260040161041e906114a6565b60405180910390fd5b60006004600085815260200190815260200160002090508060040160003373ffffffffffffffffffffffffffffffffffffffff1673ffffffffffffffffffffffffffffffffffffffff16815260200190815260200160002060009054906101000a900460ff166104cc576040517f08c379a00000000000000000000000000000000000000000000000000000000081526004016104c390611538565b60405180910390fd5b60008160040160003373ffffffffffffffffffffffffffffffffffffffff1673ffffffffffffffffffffffffffffffffffffffff16815260200190815260200160002060006101000a81548160ff02191690831515021790555080600501600081548092919061053b90611587565b9190505550833373ffffffffffffffffffffffffffffffffffffffff167ff0dca620e2e81f7841d07bcc105e1704fb01475b278a9d4c236e1c62945edd5560405160405180910390a350505050565b60026020528060005260406000206000915054906101000a900460ff1681565b60046020528060005260406000206000915090508060000160009054906101000a900473ffffffffffffffffffffffffffffffffffffffff16908060010154908060020180546105f9906115e0565b80601f0160208091040260200160405190810160405280929190818152602001828054610625906115e0565b80156106725780601f1061064757610100808354040283529160200191610672565b820191906000526020600020905b81548152906001019060200180831161065557829003601f168201915b5050505050908060030160009054906101000a900460ff16908060050154908060060160009054906101000a900460ff16905086565b60015481565b60035481565b600260003373ffffffffffffffffffffffffffffffffffffffff1673ffffffffffffffffffffffffffffffffffffffff16815260200190815260200160002060009054906101000a900460ff16610740576040517f08c379a0000000000000000000000000000000000000000000000000000000008152600401610737906113a8565b60405180910390fd5b806004600082815260200190815260200160002060060160009054906101000a900460ff166107a4576040517f08c379a000000000000000000000000000000000000000000000000000000000815260040161079b90611414565b60405180910390fd5b816004600082815260200190815260200160002060030160009054906101000a900460ff1615610809576040517f08c379a0000000000000000000000000000000000000000000000000000000008152600401610800906114a6565b60405180910390fd5b826004600082815260200190815260200160002060040160003373ffffffffffffffffffffffffffffffffffffffff1673ffffffffffffffffffffffffffffffffffffffff16815260200190815260200160002060009054906101000a900460ff16156108ab576040517f08c379a00000000000000000000000000000000000000000000000000000000081526004016108a290611414565b60405180910390fd5b60016004600086815260200190815260200160002060040160003373ffffffffffffffffffffffffffffffffffffffff1673ffffffffffffffffffffffffffffffffffffffff16815260200190815260200160002060006101000a81548160ff02191690831515021790555060046000858152602001908152602001600020600501600081548092919061093e90611612565b9190505550833373ffffffffffffffffffffffffffffffffffffffff167f5cbe105e36805f7820e291f799d5794ff948af2a5f664e580382defb6339004160405160405180910390a350505050565b600260003373ffffffffffffffffffffffffffffffffffffffff1673ffffffffffffffffffffffffffffffffffffffff16815260200190815260200160002060009054906101000a900460ff16610a19576040517f08c379a0000000000000000000000000000000000000000000000000000000008152600401610a10906113a8565b60405180910390fd5b600060036000815480929190610a2e90611612565b9190505590506000600460008381526020019081526020016000209050848160000160006101000a81548173ffffffffffffffffffffffffffffffffffffffff021916908373ffffffffffffffffffffffffffffffffffffffff16021790555083816001018190555082816002019080519060200190610aaf929190610e4e565b5060008160030160006101000a81548160ff0219169083151502179055506000816005018190555060018160060160006101000a81548160ff0219169083151502179055508060000160009054906101000a900473ffffffffffffffffffffffffffffffffffffffff1673ffffffffffffffffffffffffffffffffffffffff16823373ffffffffffffffffffffffffffffffffffffffff167fd5a05bf70715ad82a09a756320284a1b54c9ff74cd0f8cce6219e79b563fe59d846001015485600201604051610b7f9291906116f0565b60405180910390a45050505050565b600260003373ffffffffffffffffffffffffffffffffffffffff1673ffffffffffffffffffffffffffffffffffffffff16815260200190815260200160002060009054906101000a900460ff16610c1a576040517f08c379a0000000000000000000000000000000000000000000000000000000008152600401610c11906113a8565b60405180910390fd5b806004600082815260200190815260200160002060060160009054906101000a900460ff16610c7e576040517f08c379a0000000000000000000000000000000000000000000000000000000008152600401610c7590611414565b60405180910390fd5b816004600082815260200190815260200160002060030160009054906101000a900460ff1615610ce3576040517f08c379a0000000000000000000000000000000000000000000000000000000008152600401610cda906114a6565b60405180910390fd5b600060046000858152602001908152602001600020905060015481600501541015610d0d57600080fd5b60008160000160009054906101000a900473ffffffffffffffffffffffffffffffffffffffff1673ffffffffffffffffffffffffffffffffffffffff16826001015483600201604051610d6091906117aa565b60006040518083038185875af1925050503d8060008114610d9d576040519150601f19603f3d011682016040523d82523d6000602084013e610da2565b606091505b5050905060018260030160006101000a81548160ff02191690831515021790555080610e03576040517f08c379a0000000000000000000000000000000000000000000000000000000008152600401610dfa9061180d565b60405180910390fd5b843373ffffffffffffffffffffffffffffffffffffffff167f5445f318f4f5fcfb66592e68e0cc5822aa15664039bd5f0ffde24c5a8142b1ac60405160405180910390a35050505050565b828054610e5a906115e0565b90600052602060002090601f016020900481019282610e7c5760008555610ec3565b82601f10610e9557805160ff1916838001178555610ec3565b82800160010185558215610ec3579182015b82811115610ec2578251825591602001919060010190610ea7565b5b509050610ed09190610ed4565b5090565b5b80821115610eed576000816000905550600101610ed5565b5090565b6000819050919050565b610f0481610ef1565b82525050565b6000604082019050610f1f6000830185610efb565b610f2c6020830184610efb565b9392505050565b6000604051905090565b600080fd5b600080fd5b610f5081610ef1565b8114610f5b57600080fd5b50565b600081359050610f6d81610f47565b92915050565b600060208284031215610f8957610f88610f3d565b5b6000610f9784828501610f5e565b91505092915050565b600073ffffffffffffffffffffffffffffffffffffffff82169050919050565b6000610fcb82610fa0565b9050919050565b610fdb81610fc0565b82525050565b6000602082019050610ff66000830184610fd2565b92915050565b61100581610fc0565b811461101057600080fd5b50565b60008135905061102281610ffc565b92915050565b60006020828403121561103e5761103d610f3d565b5b600061104c84828501611013565b91505092915050565b60008115159050919050565b61106a81611055565b82525050565b60006020820190506110856000830184611061565b92915050565b600081519050919050565b600082825260208201905092915050565b60005b838110156110c55780820151818401526020810190506110aa565b838111156110d4576000848401525b50505050565b6000601f19601f8301169050919050565b60006110f68261108b565b6111008185611096565b93506111108185602086016110a7565b611119816110da565b840191505092915050565b600060c0820190506111396000830189610fd2565b6111466020830188610efb565b818103604083015261115881876110eb565b90506111676060830186611061565b6111746080830185610efb565b61118160a0830184611061565b979650505050505050565b60006020820190506111a16000830184610efb565b92915050565b600080fd5b600080fd5b7f4e487b7100000000000000000000000000000000000000000000000000000000600052604160045260246000fd5b6111e9826110da565b810181811067ffffffffffffffff82111715611208576112076111b1565b5b80604052505050565b600061121b610f33565b905061122782826111e0565b919050565b600067ffffffffffffffff821115611247576112466111b1565b5b611250826110da565b9050602081019050919050565b82818337600083830152505050565b600061127f61127a8461122c565b611211565b90508281526020810184848401111561129b5761129a6111ac565b5b6112a684828561125d565b509392505050565b600082601f8301126112c3576112c26111a7565b5b81356112d384826020860161126c565b91505092915050565b6000806000606084860312156112f5576112f4610f3d565b5b600061130386828701611013565b935050602061131486828701610f5e565b925050604084013567ffffffffffffffff81111561133557611334610f42565b5b611341868287016112ae565b9150509250925092565b600082825260208201905092915050565b7f4e6f74206f776e65720000000000000000000000000000000000000000000000600082015250565b600061139260098361134b565b915061139d8261135c565b602082019050919050565b600060208201905081810360008301526113c181611385565b9050919050565b7f5472616e73616374696f6e20646f65736e277420657869737400000000000000600082015250565b60006113fe60198361134b565b9150611409826113c8565b602082019050919050565b6000602082019050818103600083015261142d816113f1565b9050919050565b7f416c726561647920636f6e6669726d656420746865207472616e73616374696f60008201527f6e00000000000000000000000000000000000000000000000000000000000000602082015250565b600061149060218361134b565b915061149b82611434565b604082019050919050565b600060208201905081810360008301526114bf81611483565b9050919050565b7f4e6f7420636f6e6669726d6564207965742e205265766f6b6174696f6e20696d60008201527f706f737369626c65000000000000000000000000000000000000000000000000602082015250565b600061152260288361134b565b915061152d826114c6565b604082019050919050565b6000602082019050818103600083015261155181611515565b9050919050565b7f4e487b7100000000000000000000000000000000000000000000000000000000600052601160045260246000fd5b600061159282610ef1565b915060008214156115a6576115a5611558565b5b600182039050919050565b7f4e487b7100000000000000000000000000000000000000000000000000000000600052602260045260246000fd5b600060028204905060018216806115f857607f821691505b6020821081141561160c5761160b6115b1565b5b50919050565b600061161d82610ef1565b91507fffffffffffffffffffffffffffffffffffffffffffffffffffffffffffffffff8214156116505761164f611558565b5b600182019050919050565b60008190508160005260206000209050919050565b6000815461167d816115e0565b6116878186611096565b945060018216600081146116a257600181146116b4576116e7565b60ff19831686526020860193506116e7565b6116bd8561165b565b60005b838110156116df578154818901526001820191506020810190506116c0565b808801955050505b50505092915050565b60006040820190506117056000830185610efb565b81810360208301526117178184611670565b90509392505050565b600081905092915050565b60008154611738816115e0565b6117428186611720565b9450600182166000811461175d576001811461176e576117a1565b60ff198316865281860193506117a1565b6117778561165b565b60005b838110156117995781548189015260018201915060208101905061177a565b838801955050505b50505092915050565b60006117b6828461172b565b915081905092915050565b7f53656e64696e6720455448206661696c65640000000000000000000000000000600082015250565b60006117f760128361134b565b9150611802826117c1565b602082019050919050565b60006020820190508181036000830152611826816117ea565b905091905056fea26469706673582212209915d7571531c2d8b7628f40cc16d4ae94b5bebf9313296255ba79bb57ecb1a864736f6c634300080b0033",
  "immutableReferences": {},
  "source": "// SPDX-License-Identifier: MIT\npragma solidity >=0.8.0;\n\ncontract MultiSigWallet {\n    // Type Definitions\n    struct Transaction {\n        address to;\n        uint value;\n        bytes data;\n        bool executed;\n        mapping(address => bool) isConfirmed;\n        uint numConfirmations;\n        bool exists;\n    }\n\n    // State Variables\n    address[] public owners;\n    uint public numConfirmationRequired;\n    mapping(address => bool) public isOwner;\n\n    // As solidity >= 0.7.0 doesn't support nested\n    // mappings with arrays\n    uint public transactionIndex;\n    mapping(uint => Transaction) public transactions;\n\n    // Events\n    event Deposit(address indexed sender, uint amount, uint balance);\n    event SubmitTransaction(\n        address indexed owner,\n        uint indexed txIndex,\n        address indexed to,\n        uint value,\n        bytes data);\n    event ConfirmTransaction(address indexed owner, uint indexed txIndex);\n    event ExecuteTransaction(address indexed owner, uint indexed txIndex);\n    event RevokeConfirmation(address indexed owner, uint indexed txIndex);\n\n    // Modifiers\n    modifier onlyOwner {\n        require(isOwner[msg.sender], \"Not owner\");\n        _;\n    }\n\n    modifier txExists(uint _txIndex) {\n        require(transactions[_txIndex].exists, \"Transaction doesn't exist\");\n        _;\n    }\n\n    modifier notExecuted(uint _txIndex) {\n        require(!transactions[_txIndex].executed, \n            \"Already confirmed the transaction\");\n        _;\n    }\n\n    modifier executed(uint _txIndex) {\n        require(transactions[_txIndex].executed, \n            \"Already confirmed the transaction\");\n        _;\n    }\n\n    modifier notConfirmed(uint _txIndex) {\n        require(!transactions[_txIndex].isConfirmed[msg.sender], \"Transaction doesn't exist\");\n        _;\n    }\n\n    constructor (address[] memory _owners, uint _numConfirmationRequired) public payable {\n        uint ownersLength = _owners.length;\n        require(ownersLength != 0, \"No owners specified\");\n        require(_numConfirmationRequired > 0, \n            \"Required Number of Confirmation should be greater than 0\");\n        require(_numConfirmationRequired <= ownersLength,\n            \"Required Number of Confirmation should be less than Number of Owners\");\n        \n        for (uint index = 0; index < ownersLength; index++) {\n            require(_owners[index] != address(0), \"Owner should not be at address 0!\");\n            if(isOwner[_owners[index]] != true) {\n                owners.push(_owners[index]);\n                isOwner[_owners[index]] = true;\n            }\n        }\n\n        numConfirmationRequired = _numConfirmationRequired;\n\n    }\n\n    fallback() payable external {\n        emit Deposit(msg.sender, msg.value, address(this).balance);\n    }\n\n    function submitTransaction(address _to, uint _value, bytes memory _data)\n        public\n        onlyOwner\n    {\n        uint txIndex = transactionIndex++;\n\n        Transaction storage t = transactions[txIndex];\n\n        t.to = _to;\n        t.value = _value;\n        t.data = _data;\n        t.executed = false;\n        t.numConfirmations = 0;\n        t.exists = true;\n\n        emit SubmitTransaction(msg.sender, txIndex, t.to, t.value, t.data);\n    }\n\n    function confirmTransaction(uint _txIndex)\n        public\n        onlyOwner\n        txExists(_txIndex)\n        notExecuted(_txIndex)\n        notConfirmed(_txIndex)\n    {\n        transactions[_txIndex].isConfirmed[msg.sender] = true;\n        transactions[_txIndex].numConfirmations++;\n\n        emit ConfirmTransaction(msg.sender, _txIndex);\n    }\n\n    function executeTransaction(uint _txIndex)\n        public\n        onlyOwner\n        txExists(_txIndex)\n        notExecuted(_txIndex)\n    {\n        Transaction storage transaction = transactions[_txIndex];\n        require(transaction.numConfirmations >= numConfirmationRequired);\n\n        (bool sent, ) = payable(transaction.to).call{value: transaction.value}(transaction.data);\n\n        transaction.executed = true;\n\n        require(sent, \"Sending ETH failed\");\n\n        emit ExecuteTransaction(msg.sender, _txIndex);\n    }\n\n    function revokeConfirmation(uint _txIndex)\n        public\n        onlyOwner\n        txExists(_txIndex)\n        notExecuted(_txIndex)\n    {\n        Transaction storage transaction = transactions[_txIndex];\n\n        require(transaction.isConfirmed[msg.sender], \n            \"Not confirmed yet. Revokation impossible\");\n\n        transaction.isConfirmed[msg.sender] = false;\n        transaction.numConfirmations--;\n\n        emit RevokeConfirmation(msg.sender, _txIndex);\n    }\n\n}\n",
  "sourcePath": "/Users/shahriar/Desktop/Main/Learning/Blockchain/solidity/multisig_Wallet/contracts/MultiSigWallet.sol",
  "compiler": {
    "name": "solc",
    "version": "0.8.11+commit.d7f03943.Emscripten.clang"
  },
  "schemaVersion": "3.4.4",
  "updatedAt": "2022-02-07T22:23:43.968Z",
  "devdoc": {
    "kind": "dev",
    "methods": {},
    "version": 1
  },
  "userdoc": {
    "kind": "user",
    "methods": {},
    "version": 1
  }
}