{
  "contractName": "MultiSigWallet",
  "abi": [
    {
      "inputs": [
        {
          "internalType": "address[]",
          "name": "_owners",
          "type": "address[]"
        },
        {
          "internalType": "uint256",
          "name": "_numConfirmationRequired",
          "type": "uint256"
        }
      ],
      "stateMutability": "payable",
      "type": "constructor"
    },
    {
      "anonymous": false,
      "inputs": [
        {
          "indexed": true,
          "internalType": "address",
          "name": "owner",
          "type": "address"
        },
        {
          "indexed": true,
          "internalType": "uint256",
          "name": "txIndex",
          "type": "uint256"
        }
      ],
      "name": "ConfirmTransaction",
      "type": "event"
    },
    {
      "anonymous": false,
      "inputs": [
        {
          "indexed": true,
          "internalType": "address",
          "name": "sender",
          "type": "address"
        },
        {
          "indexed": false,
          "internalType": "uint256",
          "name": "amount",
          "type": "uint256"
        },
        {
          "indexed": false,
          "internalType": "uint256",
          "name": "balance",
          "type": "uint256"
        }
      ],
      "name": "Deposit",
      "type": "event"
    },
    {
      "anonymous": false,
      "inputs": [
        {
          "indexed": true,
          "internalType": "address",
          "name": "owner",
          "type": "address"
        },
        {
          "indexed": true,
          "internalType": "uint256",
          "name": "txIndex",
          "type": "uint256"
        }
      ],
      "name": "ExecuteTransaction",
      "type": "event"
    },
    {
      "anonymous": false,
      "inputs": [
        {
          "indexed": true,
          "internalType": "address",
          "name": "owner",
          "type": "address"
        },
        {
          "indexed": true,
          "internalType": "uint256",
          "name": "txIndex",
          "type": "uint256"
        }
      ],
      "name": "RevokeConfirmation",
      "type": "event"
    },
    {
      "anonymous": false,
      "inputs": [
        {
          "indexed": true,
          "internalType": "address",
          "name": "owner",
          "type": "address"
        },
        {
          "indexed": true,
          "internalType": "uint256",
          "name": "txIndex",
          "type": "uint256"
        },
        {
          "indexed": true,
          "internalType": "address",
          "name": "to",
          "type": "address"
        },
        {
          "indexed": false,
          "internalType": "uint256",
          "name": "value",
          "type": "uint256"
        },
        {
          "indexed": false,
          "internalType": "bytes",
          "name": "data",
          "type": "bytes"
        }
      ],
      "name": "SubmitTransaction",
      "type": "event"
    },
    {
      "stateMutability": "payable",
      "type": "fallback"
    },
    {
      "inputs": [
        {
          "internalType": "address",
          "name": "",
          "type": "address"
        }
      ],
      "name": "isOwner",
      "outputs": [
        {
          "internalType": "bool",
          "name": "",
          "type": "bool"
        }
      ],
      "stateMutability": "view",
      "type": "function"
    },
    {
      "inputs": [],
      "name": "numConfirmationRequired",
      "outputs": [
        {
          "internalType": "uint256",
          "name": "",
          "type": "uint256"
        }
      ],
      "stateMutability": "view",
      "type": "function"
    },
    {
      "inputs": [
        {
          "internalType": "uint256",
          "name": "",
          "type": "uint256"
        }
      ],
      "name": "owners",
      "outputs": [
        {
          "internalType": "address",
          "name": "",
          "type": "address"
        }
      ],
      "stateMutability": "view",
      "type": "function"
    },
    {
      "inputs": [],
      "name": "transactionIndex",
      "outputs": [
        {
          "internalType": "uint256",
          "name": "",
          "type": "uint256"
        }
      ],
      "stateMutability": "view",
      "type": "function"
    },
    {
      "inputs": [
        {
          "internalType": "uint256",
          "name": "",
          "type": "uint256"
        }
      ],
      "name": "transactions",
      "outputs": [
        {
          "internalType": "address",
          "name": "to",
          "type": "address"
        },
        {
          "internalType": "uint256",
          "name": "value",
          "type": "uint256"
        },
        {
          "internalType": "bytes",
          "name": "data",
          "type": "bytes"
        },
        {
          "internalType": "bool",
          "name": "executed",
          "type": "bool"
        },
        {
          "internalType": "uint256",
          "name": "numConfirmations",
          "type": "uint256"
        },
        {
          "internalType": "bool",
          "name": "exists",
          "type": "bool"
        }
      ],
      "stateMutability": "view",
      "type": "function"
    },
    {
      "inputs": [
        {
          "internalType": "address",
          "name": "_to",
          "type": "address"
        },
        {
          "internalType": "uint256",
          "name": "_value",
          "type": "uint256"
        },
        {
          "internalType": "bytes",
          "name": "_data",
          "type": "bytes"
        }
      ],
      "name": "submitTransaction",
      "outputs": [],
      "stateMutability": "nonpayable",
      "type": "function"
    },
    {
      "inputs": [
        {
          "internalType": "uint256",
          "name": "_txIndex",
          "type": "uint256"
        }
      ],
      "name": "confirmTransaction",
      "outputs": [],
      "stateMutability": "nonpayable",
      "type": "function"
    },
    {
      "inputs": [
        {
          "internalType": "uint256",
          "name": "_txIndex",
          "type": "uint256"
        }
      ],
      "name": "executeTransaction",
      "outputs": [],
      "stateMutability": "nonpayable",
      "type": "function"
    },
    {
      "inputs": [
        {
          "internalType": "uint256",
          "name": "_txIndex",
          "type": "uint256"
        }
      ],
      "name": "revokeConfirmation",
      "outputs": [],
      "stateMutability": "nonpayable",
      "type": "function"
    },
    {
      "inputs": [
        {
          "internalType": "uint256",
          "name": "_txIndex",
          "type": "uint256"
        }
      ],
      "name": "getTransaction",
      "outputs": [
        {
          "internalType": "address",
          "name": "to",
          "type": "address"
        },
        {
          "internalType": "uint256",
          "name": "value",
          "type": "uint256"
        },
        {
          "internalType": "bytes",
          "name": "data",
          "type": "bytes"
        },
        {
          "internalType": "bool",
          "name": "_executed",
          "type": "bool"
        },
        {
          "internalType": "uint256",
          "name": "numConfirmations",
          "type": "uint256"
        }
      ],
      "stateMutability": "view",
      "type": "function"
    }
  ],
  "bytecode": "0x6080604052604051620022d4380380620022d483398181016040528101906200002991906200055a565b600082519050600081141562000076576040517f08c379a00000000000000000000000000000000000000000000000000000000081526004016200006d9062000621565b60405180910390fd5b60008211620000bc576040517f08c379a0000000000000000000000000000000000000000000000000000000008152600401620000b390620006b9565b60405180910390fd5b8082111562000102576040517f08c379a0000000000000000000000000000000000000000000000000000000008152600401620000f99062000777565b60405180910390fd5b60005b818110156200032057600073ffffffffffffffffffffffffffffffffffffffff168482815181106200013c576200013b62000799565b5b602002602001015173ffffffffffffffffffffffffffffffffffffffff1614156200019e576040517f08c379a000000000000000000000000000000000000000000000000000000000815260040162000195906200083e565b60405180910390fd5b6001151560026000868481518110620001bc57620001bb62000799565b5b602002602001015173ffffffffffffffffffffffffffffffffffffffff1673ffffffffffffffffffffffffffffffffffffffff16815260200190815260200160002060009054906101000a900460ff161515146200030a5760008482815181106200022c576200022b62000799565b5b60200260200101519080600181540180825580915050600190039060005260206000200160009091909190916101000a81548173ffffffffffffffffffffffffffffffffffffffff021916908373ffffffffffffffffffffffffffffffffffffffff160217905550600160026000868481518110620002b057620002af62000799565b5b602002602001015173ffffffffffffffffffffffffffffffffffffffff1673ffffffffffffffffffffffffffffffffffffffff16815260200190815260200160002060006101000a81548160ff0219169083151502179055505b808062000317906200088f565b91505062000105565b5081600181905550505050620008dd565b6000604051905090565b600080fd5b600080fd5b600080fd5b6000601f19601f8301169050919050565b7f4e487b7100000000000000000000000000000000000000000000000000000000600052604160045260246000fd5b62000395826200034a565b810181811067ffffffffffffffff82111715620003b757620003b66200035b565b5b80604052505050565b6000620003cc62000331565b9050620003da82826200038a565b919050565b600067ffffffffffffffff821115620003fd57620003fc6200035b565b5b602082029050602081019050919050565b600080fd5b600073ffffffffffffffffffffffffffffffffffffffff82169050919050565b6000620004408262000413565b9050919050565b620004528162000433565b81146200045e57600080fd5b50565b600081519050620004728162000447565b92915050565b60006200048f6200048984620003df565b620003c0565b90508083825260208201905060208402830185811115620004b557620004b46200040e565b5b835b81811015620004e25780620004cd888262000461565b845260208401935050602081019050620004b7565b5050509392505050565b600082601f83011262000504576200050362000345565b5b81516200051684826020860162000478565b91505092915050565b6000819050919050565b62000534816200051f565b81146200054057600080fd5b50565b600081519050620005548162000529565b92915050565b600080604083850312156200057457620005736200033b565b5b600083015167ffffffffffffffff81111562000595576200059462000340565b5b620005a385828601620004ec565b9250506020620005b68582860162000543565b9150509250929050565b600082825260208201905092915050565b7f4e6f206f776e6572732073706563696669656400000000000000000000000000600082015250565b600062000609601383620005c0565b91506200061682620005d1565b602082019050919050565b600060208201905081810360008301526200063c81620005fa565b9050919050565b7f5265717569726564204e756d626572206f6620436f6e6669726d6174696f6e2060008201527f73686f756c642062652067726561746572207468616e20300000000000000000602082015250565b6000620006a1603883620005c0565b9150620006ae8262000643565b604082019050919050565b60006020820190508181036000830152620006d48162000692565b9050919050565b7f5265717569726564204e756d626572206f6620436f6e6669726d6174696f6e2060008201527f73686f756c64206265206c657373207468616e204e756d626572206f66204f7760208201527f6e65727300000000000000000000000000000000000000000000000000000000604082015250565b60006200075f604483620005c0565b91506200076c82620006db565b606082019050919050565b60006020820190508181036000830152620007928162000750565b9050919050565b7f4e487b7100000000000000000000000000000000000000000000000000000000600052603260045260246000fd5b7f4f776e65722073686f756c64206e6f742062652061742061646472657373203060008201527f2100000000000000000000000000000000000000000000000000000000000000602082015250565b600062000826602183620005c0565b91506200083382620007c8565b604082019050919050565b60006020820190508181036000830152620008598162000817565b9050919050565b7f4e487b7100000000000000000000000000000000000000000000000000000000600052601160045260246000fd5b60006200089c826200051f565b91507fffffffffffffffffffffffffffffffffffffffffffffffffffffffffffffffff821415620008d257620008d162000860565b5b600182019050919050565b6119e780620008ed6000396000f3fe6080604052600436106100955760003560e01c80639b6a34d3116100595780639b6a34d31461020e578063b8220f6a14610239578063c01a8c8414610264578063c64274741461028d578063ee22610b146102b657610096565b8063025e7c27146100e857806320ea8d86146101255780632f54bf6e1461014e57806333ea3dc81461018b5780639ace38c2146101cc57610096565b5b3373ffffffffffffffffffffffffffffffffffffffff167f90890809c654f11d6e72a28fa60149770a0d11ec6c92319d6ceb2bb0a4ea1a1534476040516100de92919061105a565b60405180910390a2005b3480156100f457600080fd5b5061010f600480360381019061010a91906110c3565b6102df565b60405161011c9190611131565b60405180910390f35b34801561013157600080fd5b5061014c600480360381019061014791906110c3565b61031e565b005b34801561015a57600080fd5b5061017560048036038101906101709190611178565b6105d6565b60405161018291906111c0565b60405180910390f35b34801561019757600080fd5b506101b260048036038101906101ad91906110c3565b6105f6565b6040516101c3959493929190611274565b60405180910390f35b3480156101d857600080fd5b506101f360048036038101906101ee91906110c3565b6106fa565b604051610205969594939291906112ce565b60405180910390f35b34801561021a57600080fd5b506102236107f8565b6040516102309190611336565b60405180910390f35b34801561024557600080fd5b5061024e6107fe565b60405161025b9190611336565b60405180910390f35b34801561027057600080fd5b5061028b600480360381019061028691906110c3565b610804565b005b34801561029957600080fd5b506102b460048036038101906102af9190611486565b610add565b005b3480156102c257600080fd5b506102dd60048036038101906102d891906110c3565b610cde565b005b600081815481106102ef57600080fd5b906000526020600020016000915054906101000a900473ffffffffffffffffffffffffffffffffffffffff1681565b600260003373ffffffffffffffffffffffffffffffffffffffff1673ffffffffffffffffffffffffffffffffffffffff16815260200190815260200160002060009054906101000a900460ff166103aa576040517f08c379a00000000000000000000000000000000000000000000000000000000081526004016103a190611552565b60405180910390fd5b806004600082815260200190815260200160002060060160009054906101000a900460ff1661040e576040517f08c379a0000000000000000000000000000000000000000000000000000000008152600401610405906115be565b60405180910390fd5b816004600082815260200190815260200160002060030160009054906101000a900460ff1615610473576040517f08c379a000000000000000000000000000000000000000000000000000000000815260040161046a9061162a565b60405180910390fd5b60006004600085815260200190815260200160002090508060040160003373ffffffffffffffffffffffffffffffffffffffff1673ffffffffffffffffffffffffffffffffffffffff16815260200190815260200160002060009054906101000a900460ff16610518576040517f08c379a000000000000000000000000000000000000000000000000000000000815260040161050f906116bc565b60405180910390fd5b60008160040160003373ffffffffffffffffffffffffffffffffffffffff1673ffffffffffffffffffffffffffffffffffffffff16815260200190815260200160002060006101000a81548160ff0219169083151502179055508060050160008154809291906105879061170b565b9190505550833373ffffffffffffffffffffffffffffffffffffffff167ff0dca620e2e81f7841d07bcc105e1704fb01475b278a9d4c236e1c62945edd5560405160405180910390a350505050565b60026020528060005260406000206000915054906101000a900460ff1681565b600080606060008060006004600088815260200190815260200160002090508060000160009054906101000a900473ffffffffffffffffffffffffffffffffffffffff168160010154826002018360030160009054906101000a900460ff16846005015482805461066690611764565b80601f016020809104026020016040519081016040528092919081815260200182805461069290611764565b80156106df5780601f106106b4576101008083540402835291602001916106df565b820191906000526020600020905b8154815290600101906020018083116106c257829003601f168201915b50505050509250955095509550955095505091939590929450565b60046020528060005260406000206000915090508060000160009054906101000a900473ffffffffffffffffffffffffffffffffffffffff169080600101549080600201805461074990611764565b80601f016020809104026020016040519081016040528092919081815260200182805461077590611764565b80156107c25780601f10610797576101008083540402835291602001916107c2565b820191906000526020600020905b8154815290600101906020018083116107a557829003601f168201915b5050505050908060030160009054906101000a900460ff16908060050154908060060160009054906101000a900460ff16905086565b60015481565b60035481565b600260003373ffffffffffffffffffffffffffffffffffffffff1673ffffffffffffffffffffffffffffffffffffffff16815260200190815260200160002060009054906101000a900460ff16610890576040517f08c379a000000000000000000000000000000000000000000000000000000000815260040161088790611552565b60405180910390fd5b806004600082815260200190815260200160002060060160009054906101000a900460ff166108f4576040517f08c379a00000000000000000000000000000000000000000000000000000000081526004016108eb906115be565b60405180910390fd5b816004600082815260200190815260200160002060030160009054906101000a900460ff1615610959576040517f08c379a00000000000000000000000000000000000000000000000000000000081526004016109509061162a565b60405180910390fd5b826004600082815260200190815260200160002060040160003373ffffffffffffffffffffffffffffffffffffffff1673ffffffffffffffffffffffffffffffffffffffff16815260200190815260200160002060009054906101000a900460ff16156109fb576040517f08c379a00000000000000000000000000000000000000000000000000000000081526004016109f2906115be565b60405180910390fd5b60016004600086815260200190815260200160002060040160003373ffffffffffffffffffffffffffffffffffffffff1673ffffffffffffffffffffffffffffffffffffffff16815260200190815260200160002060006101000a81548160ff021916908315150217905550600460008581526020019081526020016000206005016000815480929190610a8e90611796565b9190505550833373ffffffffffffffffffffffffffffffffffffffff167f5cbe105e36805f7820e291f799d5794ff948af2a5f664e580382defb6339004160405160405180910390a350505050565b600260003373ffffffffffffffffffffffffffffffffffffffff1673ffffffffffffffffffffffffffffffffffffffff16815260200190815260200160002060009054906101000a900460ff16610b69576040517f08c379a0000000000000000000000000000000000000000000000000000000008152600401610b6090611552565b60405180910390fd5b600060036000815480929190610b7e90611796565b9190505590506000600460008381526020019081526020016000209050848160000160006101000a81548173ffffffffffffffffffffffffffffffffffffffff021916908373ffffffffffffffffffffffffffffffffffffffff16021790555083816001018190555082816002019080519060200190610bff929190610f9e565b5060008160030160006101000a81548160ff0219169083151502179055506000816005018190555060018160060160006101000a81548160ff0219169083151502179055508060000160009054906101000a900473ffffffffffffffffffffffffffffffffffffffff1673ffffffffffffffffffffffffffffffffffffffff16823373ffffffffffffffffffffffffffffffffffffffff167fd5a05bf70715ad82a09a756320284a1b54c9ff74cd0f8cce6219e79b563fe59d846001015485600201604051610ccf929190611874565b60405180910390a45050505050565b600260003373ffffffffffffffffffffffffffffffffffffffff1673ffffffffffffffffffffffffffffffffffffffff16815260200190815260200160002060009054906101000a900460ff16610d6a576040517f08c379a0000000000000000000000000000000000000000000000000000000008152600401610d6190611552565b60405180910390fd5b806004600082815260200190815260200160002060060160009054906101000a900460ff16610dce576040517f08c379a0000000000000000000000000000000000000000000000000000000008152600401610dc5906115be565b60405180910390fd5b816004600082815260200190815260200160002060030160009054906101000a900460ff1615610e33576040517f08c379a0000000000000000000000000000000000000000000000000000000008152600401610e2a9061162a565b60405180910390fd5b600060046000858152602001908152602001600020905060015481600501541015610e5d57600080fd5b60008160000160009054906101000a900473ffffffffffffffffffffffffffffffffffffffff1673ffffffffffffffffffffffffffffffffffffffff16826001015483600201604051610eb0919061192e565b60006040518083038185875af1925050503d8060008114610eed576040519150601f19603f3d011682016040523d82523d6000602084013e610ef2565b606091505b5050905060018260030160006101000a81548160ff02191690831515021790555080610f53576040517f08c379a0000000000000000000000000000000000000000000000000000000008152600401610f4a90611991565b60405180910390fd5b843373ffffffffffffffffffffffffffffffffffffffff167f5445f318f4f5fcfb66592e68e0cc5822aa15664039bd5f0ffde24c5a8142b1ac60405160405180910390a35050505050565b828054610faa90611764565b90600052602060002090601f016020900481019282610fcc5760008555611013565b82601f10610fe557805160ff1916838001178555611013565b82800160010185558215611013579182015b82811115611012578251825591602001919060010190610ff7565b5b5090506110209190611024565b5090565b5b8082111561103d576000816000905550600101611025565b5090565b6000819050919050565b61105481611041565b82525050565b600060408201905061106f600083018561104b565b61107c602083018461104b565b9392505050565b6000604051905090565b600080fd5b600080fd5b6110a081611041565b81146110ab57600080fd5b50565b6000813590506110bd81611097565b92915050565b6000602082840312156110d9576110d861108d565b5b60006110e7848285016110ae565b91505092915050565b600073ffffffffffffffffffffffffffffffffffffffff82169050919050565b600061111b826110f0565b9050919050565b61112b81611110565b82525050565b60006020820190506111466000830184611122565b92915050565b61115581611110565b811461116057600080fd5b50565b6000813590506111728161114c565b92915050565b60006020828403121561118e5761118d61108d565b5b600061119c84828501611163565b91505092915050565b60008115159050919050565b6111ba816111a5565b82525050565b60006020820190506111d560008301846111b1565b92915050565b600081519050919050565b600082825260208201905092915050565b60005b838110156112155780820151818401526020810190506111fa565b83811115611224576000848401525b50505050565b6000601f19601f8301169050919050565b6000611246826111db565b61125081856111e6565b93506112608185602086016111f7565b6112698161122a565b840191505092915050565b600060a0820190506112896000830188611122565b611296602083018761104b565b81810360408301526112a8818661123b565b90506112b760608301856111b1565b6112c4608083018461104b565b9695505050505050565b600060c0820190506112e36000830189611122565b6112f0602083018861104b565b8181036040830152611302818761123b565b905061131160608301866111b1565b61131e608083018561104b565b61132b60a08301846111b1565b979650505050505050565b600060208201905061134b600083018461104b565b92915050565b600080fd5b600080fd5b7f4e487b7100000000000000000000000000000000000000000000000000000000600052604160045260246000fd5b6113938261122a565b810181811067ffffffffffffffff821117156113b2576113b161135b565b5b80604052505050565b60006113c5611083565b90506113d1828261138a565b919050565b600067ffffffffffffffff8211156113f1576113f061135b565b5b6113fa8261122a565b9050602081019050919050565b82818337600083830152505050565b6000611429611424846113d6565b6113bb565b90508281526020810184848401111561144557611444611356565b5b611450848285611407565b509392505050565b600082601f83011261146d5761146c611351565b5b813561147d848260208601611416565b91505092915050565b60008060006060848603121561149f5761149e61108d565b5b60006114ad86828701611163565b93505060206114be868287016110ae565b925050604084013567ffffffffffffffff8111156114df576114de611092565b5b6114eb86828701611458565b9150509250925092565b600082825260208201905092915050565b7f4e6f74206f776e65720000000000000000000000000000000000000000000000600082015250565b600061153c6009836114f5565b915061154782611506565b602082019050919050565b6000602082019050818103600083015261156b8161152f565b9050919050565b7f5472616e73616374696f6e20646f65736e277420657869737400000000000000600082015250565b60006115a86019836114f5565b91506115b382611572565b602082019050919050565b600060208201905081810360008301526115d78161159b565b9050919050565b7f416c726561647920657865637574656420746865207472616e73616374696f6e600082015250565b60006116146020836114f5565b915061161f826115de565b602082019050919050565b6000602082019050818103600083015261164381611607565b9050919050565b7f4e6f7420636f6e6669726d6564207965742e205265766f6b6174696f6e20696d60008201527f706f737369626c65000000000000000000000000000000000000000000000000602082015250565b60006116a66028836114f5565b91506116b18261164a565b604082019050919050565b600060208201905081810360008301526116d581611699565b9050919050565b7f4e487b7100000000000000000000000000000000000000000000000000000000600052601160045260246000fd5b600061171682611041565b9150600082141561172a576117296116dc565b5b600182039050919050565b7f4e487b7100000000000000000000000000000000000000000000000000000000600052602260045260246000fd5b6000600282049050600182168061177c57607f821691505b602082108114156117905761178f611735565b5b50919050565b60006117a182611041565b91507fffffffffffffffffffffffffffffffffffffffffffffffffffffffffffffffff8214156117d4576117d36116dc565b5b600182019050919050565b60008190508160005260206000209050919050565b6000815461180181611764565b61180b81866111e6565b9450600182166000811461182657600181146118385761186b565b60ff198316865260208601935061186b565b611841856117df565b60005b8381101561186357815481890152600182019150602081019050611844565b808801955050505b50505092915050565b6000604082019050611889600083018561104b565b818103602083015261189b81846117f4565b90509392505050565b600081905092915050565b600081546118bc81611764565b6118c681866118a4565b945060018216600081146118e157600181146118f257611925565b60ff19831686528186019350611925565b6118fb856117df565b60005b8381101561191d578154818901526001820191506020810190506118fe565b838801955050505b50505092915050565b600061193a82846118af565b915081905092915050565b7f53656e64696e6720455448206661696c65640000000000000000000000000000600082015250565b600061197b6012836114f5565b915061198682611945565b602082019050919050565b600060208201905081810360008301526119aa8161196e565b905091905056fea264697066735822122072488ff33b9dd63cdc2f7cfeef46f67b5f5ea70d660e226e539c30540e251f2e64736f6c634300080b0033",
  "immutableReferences": {},
  "source": "// SPDX-License-Identifier: MIT\npragma solidity >=0.8.0;\n\ncontract MultiSigWallet {\n    // Type Definitions\n    struct Transaction {\n        address to;\n        uint value;\n        bytes data;\n        bool executed;\n        mapping(address => bool) isConfirmed;\n        uint numConfirmations;\n        bool exists;\n    }\n\n    // State Variables\n    address[] public owners;\n    uint public numConfirmationRequired;\n    mapping(address => bool) public isOwner;\n\n    // As solidity >= 0.7.0 doesn't support nested\n    // mappings with arrays\n    uint public transactionIndex;\n    mapping(uint => Transaction) public transactions;\n\n    // Events\n    event Deposit(address indexed sender, uint amount, uint balance);\n    event SubmitTransaction(\n        address indexed owner,\n        uint indexed txIndex,\n        address indexed to,\n        uint value,\n        bytes data);\n    event ConfirmTransaction(address indexed owner, uint indexed txIndex);\n    event ExecuteTransaction(address indexed owner, uint indexed txIndex);\n    event RevokeConfirmation(address indexed owner, uint indexed txIndex);\n\n    // Modifiers\n    modifier onlyOwner() {\n        require(isOwner[msg.sender], \"Not owner\");\n        _;\n    }\n\n    modifier txExists(uint _txIndex) {\n        require(transactions[_txIndex].exists, \"Transaction doesn't exist\");\n        _;\n    }\n\n    modifier notExecuted(uint _txIndex) {\n        require(!transactions[_txIndex].executed, \n            \"Already executed the transaction\");\n        _;\n    }\n\n    modifier notConfirmed(uint _txIndex) {\n        require(!transactions[_txIndex].isConfirmed[msg.sender], \"Transaction doesn't exist\");\n        _;\n    }\n\n    constructor (address[] memory _owners, uint _numConfirmationRequired) public payable {\n        uint ownersLength = _owners.length;\n        require(ownersLength != 0, \"No owners specified\");\n        require(_numConfirmationRequired > 0, \n            \"Required Number of Confirmation should be greater than 0\");\n        require(_numConfirmationRequired <= ownersLength,\n            \"Required Number of Confirmation should be less than Number of Owners\");\n        \n        for (uint index = 0; index < ownersLength; index++) {\n            require(_owners[index] != address(0), \"Owner should not be at address 0!\");\n            if(isOwner[_owners[index]] != true) {\n                owners.push(_owners[index]);\n                isOwner[_owners[index]] = true;\n            }\n        }\n\n        numConfirmationRequired = _numConfirmationRequired;\n\n    }\n\n    fallback() payable external {\n        emit Deposit(msg.sender, msg.value, address(this).balance);\n    }\n\n    function submitTransaction(address _to, uint _value, bytes memory _data)\n        public\n        onlyOwner\n    {\n        uint txIndex = transactionIndex++;\n\n        Transaction storage t = transactions[txIndex];\n\n        t.to = _to;\n        t.value = _value;\n        t.data = _data;\n        t.executed = false;\n        t.numConfirmations = 0;\n        t.exists = true;\n\n        emit SubmitTransaction(msg.sender, txIndex, t.to, t.value, t.data);\n    }\n\n    function confirmTransaction(uint _txIndex)\n        public\n        onlyOwner()\n        txExists(_txIndex)\n        notExecuted(_txIndex)\n        notConfirmed(_txIndex)\n    {\n        transactions[_txIndex].isConfirmed[msg.sender] = true;\n        transactions[_txIndex].numConfirmations++;\n\n        emit ConfirmTransaction(msg.sender, _txIndex);\n    }\n\n    function executeTransaction(uint _txIndex)\n        public\n        onlyOwner\n        txExists(_txIndex)\n        notExecuted(_txIndex)\n    {\n        Transaction storage transaction = transactions[_txIndex];\n        require(transaction.numConfirmations >= numConfirmationRequired);\n\n        (bool sent, ) = payable(transaction.to).call{value: transaction.value}(transaction.data);\n\n        transaction.executed = true;\n\n        require(sent, \"Sending ETH failed\");\n\n        emit ExecuteTransaction(msg.sender, _txIndex);\n    }\n\n    function revokeConfirmation(uint _txIndex)\n        public\n        onlyOwner\n        txExists(_txIndex)\n        notExecuted(_txIndex)\n    {\n        Transaction storage transaction = transactions[_txIndex];\n\n        require(transaction.isConfirmed[msg.sender], \n            \"Not confirmed yet. Revokation impossible\");\n\n        transaction.isConfirmed[msg.sender] = false;\n        transaction.numConfirmations--;\n\n        emit RevokeConfirmation(msg.sender, _txIndex);\n    }\n\n    function getTransaction(uint _txIndex) \n        public\n        view\n        returns (address to, uint value, bytes memory data, bool _executed, uint numConfirmations)\n    {\n        Transaction storage transaction = transactions[_txIndex];\n\n        return (\n            transaction.to,\n            transaction.value,\n            transaction.data,\n            transaction.executed,\n            transaction.numConfirmations\n        );\n\n    }\n\n}\n",
  "sourcePath": "/Users/shahriar/Desktop/Main/Learning/Blockchain/solidity/multisig_Wallet/contracts/MultiSigWallet.sol",
  "compiler": {
    "name": "solc",
    "version": "0.8.11+commit.d7f03943.Emscripten.clang"
  },
  "schemaVersion": "3.4.4",
  "updatedAt": "2022-02-08T10:22:03.862Z",
  "devdoc": {
    "kind": "dev",
    "methods": {},
    "version": 1
  },
  "userdoc": {
    "kind": "user",
    "methods": {},
    "version": 1
  }
}