{
  "contractName": "EnglishAuction",
  "abi": [
    {
      "inputs": [
        {
          "internalType": "address",
          "name": "_nft",
          "type": "address"
        },
        {
          "internalType": "uint256",
          "name": "_nftID",
          "type": "uint256"
        },
        {
          "internalType": "uint256",
          "name": "_startingBid",
          "type": "uint256"
        }
      ],
      "stateMutability": "nonpayable",
      "type": "constructor"
    },
    {
      "anonymous": false,
      "inputs": [
        {
          "indexed": false,
          "internalType": "address",
          "name": "highestBidder",
          "type": "address"
        },
        {
          "indexed": false,
          "internalType": "uint256",
          "name": "highestBid",
          "type": "uint256"
        }
      ],
      "name": "Bid",
      "type": "event"
    },
    {
      "anonymous": false,
      "inputs": [],
      "name": "End",
      "type": "event"
    },
    {
      "anonymous": false,
      "inputs": [
        {
          "indexed": false,
          "internalType": "uint256",
          "name": "startingTime",
          "type": "uint256"
        }
      ],
      "name": "Start",
      "type": "event"
    },
    {
      "anonymous": false,
      "inputs": [
        {
          "indexed": false,
          "internalType": "address",
          "name": "Bidder",
          "type": "address"
        },
        {
          "indexed": false,
          "internalType": "uint256",
          "name": "Bid",
          "type": "uint256"
        }
      ],
      "name": "Withdraw",
      "type": "event"
    },
    {
      "inputs": [
        {
          "internalType": "address",
          "name": "",
          "type": "address"
        }
      ],
      "name": "bids",
      "outputs": [
        {
          "internalType": "uint256",
          "name": "",
          "type": "uint256"
        }
      ],
      "stateMutability": "view",
      "type": "function"
    },
    {
      "inputs": [],
      "name": "endAt",
      "outputs": [
        {
          "internalType": "uint256",
          "name": "",
          "type": "uint256"
        }
      ],
      "stateMutability": "view",
      "type": "function"
    },
    {
      "inputs": [],
      "name": "ended",
      "outputs": [
        {
          "internalType": "bool",
          "name": "",
          "type": "bool"
        }
      ],
      "stateMutability": "view",
      "type": "function"
    },
    {
      "inputs": [],
      "name": "highestBid",
      "outputs": [
        {
          "internalType": "uint256",
          "name": "",
          "type": "uint256"
        }
      ],
      "stateMutability": "view",
      "type": "function"
    },
    {
      "inputs": [],
      "name": "highestBidder",
      "outputs": [
        {
          "internalType": "address",
          "name": "",
          "type": "address"
        }
      ],
      "stateMutability": "view",
      "type": "function"
    },
    {
      "inputs": [],
      "name": "nft",
      "outputs": [
        {
          "internalType": "contract IERC721",
          "name": "",
          "type": "address"
        }
      ],
      "stateMutability": "view",
      "type": "function"
    },
    {
      "inputs": [],
      "name": "nftID",
      "outputs": [
        {
          "internalType": "uint256",
          "name": "",
          "type": "uint256"
        }
      ],
      "stateMutability": "view",
      "type": "function"
    },
    {
      "inputs": [],
      "name": "seller",
      "outputs": [
        {
          "internalType": "address payable",
          "name": "",
          "type": "address"
        }
      ],
      "stateMutability": "view",
      "type": "function"
    },
    {
      "inputs": [],
      "name": "started",
      "outputs": [
        {
          "internalType": "bool",
          "name": "",
          "type": "bool"
        }
      ],
      "stateMutability": "view",
      "type": "function"
    },
    {
      "inputs": [],
      "name": "start",
      "outputs": [],
      "stateMutability": "nonpayable",
      "type": "function"
    },
    {
      "inputs": [],
      "name": "bid",
      "outputs": [],
      "stateMutability": "payable",
      "type": "function"
    },
    {
      "inputs": [],
      "name": "withdraw",
      "outputs": [],
      "stateMutability": "nonpayable",
      "type": "function"
    },
    {
      "inputs": [],
      "name": "end",
      "outputs": [],
      "stateMutability": "nonpayable",
      "type": "function"
    },
    {
      "inputs": [],
      "name": "getNFTAddress",
      "outputs": [
        {
          "internalType": "address",
          "name": "",
          "type": "address"
        }
      ],
      "stateMutability": "view",
      "type": "function"
    }
  ],
  "bytecode": "0x60e06040523480156200001157600080fd5b506040516200173c3803806200173c83398181016040528101906200003791906200015c565b8273ffffffffffffffffffffffffffffffffffffffff1660808173ffffffffffffffffffffffffffffffffffffffff16815250508160a081815250503373ffffffffffffffffffffffffffffffffffffffff1660c08173ffffffffffffffffffffffffffffffffffffffff168152505080600281905550505050620001b8565b600080fd5b600073ffffffffffffffffffffffffffffffffffffffff82169050919050565b6000620000e982620000bc565b9050919050565b620000fb81620000dc565b81146200010757600080fd5b50565b6000815190506200011b81620000f0565b92915050565b6000819050919050565b620001368162000121565b81146200014257600080fd5b50565b60008151905062000156816200012b565b92915050565b600080600060608486031215620001785762000177620000b7565b5b600062000188868287016200010a565b93505060206200019b8682870162000145565b9250506040620001ae8682870162000145565b9150509250925092565b60805160a05160c05161150762000235600039600081816102f3015281816107b7015281816108fe01528181610b820152610cea015260008181610920015281816109ca01528181610ba30152610c7901526000818161072701528181610791015281816108c201528181610b450152610c1901526115076000f3fe6080604052600436106100dd5760003560e01c80637cc3ae8c1161007f578063be9a655511610059578063be9a65551461026d578063c399475214610284578063d57bde79146102af578063efbe1c1c146102da576100dd565b80637cc3ae8c146101ec57806391f9015714610217578063b961847814610242576100dd565b80631f2698ab116100bb5780631f2698ab146101425780633ccfd60b1461016d57806347ccca021461018457806362ea82db146101af576100dd565b806308551a53146100e257806312fa6feb1461010d5780631998aeef14610138575b600080fd5b3480156100ee57600080fd5b506100f76102f1565b6040516101049190610dc1565b60405180910390f35b34801561011957600080fd5b50610122610315565b60405161012f9190610df7565b60405180910390f35b610140610326565b005b34801561014e57600080fd5b50610157610575565b6040516101649190610df7565b60405180910390f35b34801561017957600080fd5b50610182610588565b005b34801561019057600080fd5b50610199610725565b6040516101a69190610e71565b60405180910390f35b3480156101bb57600080fd5b506101d660048036038101906101d19190610ecf565b610749565b6040516101e39190610f15565b60405180910390f35b3480156101f857600080fd5b50610201610761565b60405161020e9190610f15565b60405180910390f35b34801561022357600080fd5b5061022c610767565b6040516102399190610f3f565b60405180910390f35b34801561024e57600080fd5b5061025761078d565b6040516102649190610f3f565b60405180910390f35b34801561027957600080fd5b506102826107b5565b005b34801561029057600080fd5b506102996109c8565b6040516102a69190610f15565b60405180910390f35b3480156102bb57600080fd5b506102c46109ec565b6040516102d19190610f15565b60405180910390f35b3480156102e657600080fd5b506102ef6109f2565b005b7f000000000000000000000000000000000000000000000000000000000000000081565b60018054906101000a900460ff1681565b600160009054906101000a900460ff16610375576040517f08c379a000000000000000000000000000000000000000000000000000000000815260040161036c90610fb7565b60405180910390fd5b60005442106103b9576040517f08c379a00000000000000000000000000000000000000000000000000000000081526004016103b090611023565b60405180910390fd5b60025434116103fd576040517f08c379a00000000000000000000000000000000000000000000000000000000081526004016103f49061108f565b60405180910390fd5b600073ffffffffffffffffffffffffffffffffffffffff16600160029054906101000a900473ffffffffffffffffffffffffffffffffffffffff1673ffffffffffffffffffffffffffffffffffffffff16146104ce5760025460036000600160029054906101000a900473ffffffffffffffffffffffffffffffffffffffff1673ffffffffffffffffffffffffffffffffffffffff1673ffffffffffffffffffffffffffffffffffffffff16815260200190815260200160002060008282546104c691906110de565b925050819055505b33600160026101000a81548173ffffffffffffffffffffffffffffffffffffffff021916908373ffffffffffffffffffffffffffffffffffffffff160217905550346002819055507fe684a55f31b79eca403df938249029212a5925ec6be8012e099b45bc1019e5d2600160029054906101000a900473ffffffffffffffffffffffffffffffffffffffff1660025460405161056b929190611134565b60405180910390a1565b600160009054906101000a900460ff1681565b600160029054906101000a900473ffffffffffffffffffffffffffffffffffffffff1673ffffffffffffffffffffffffffffffffffffffff163373ffffffffffffffffffffffffffffffffffffffff161415610619576040517f08c379a0000000000000000000000000000000000000000000000000000000008152600401610610906111a9565b60405180910390fd5b6000600360003373ffffffffffffffffffffffffffffffffffffffff1673ffffffffffffffffffffffffffffffffffffffff1681526020019081526020016000205490506000600360003373ffffffffffffffffffffffffffffffffffffffff1673ffffffffffffffffffffffffffffffffffffffff168152602001908152602001600020819055503373ffffffffffffffffffffffffffffffffffffffff166108fc829081150290604051600060405180830381858888f193505050501580156106e8573d6000803e3d6000fd5b507f884edad9ce6fa2440d8a54cc123490eb96d2768479d49ff9c7366125a9424364338260405161071a929190611134565b60405180910390a150565b7f000000000000000000000000000000000000000000000000000000000000000081565b60036020528060005260406000206000915090505481565b60005481565b600160029054906101000a900473ffffffffffffffffffffffffffffffffffffffff1681565b60007f0000000000000000000000000000000000000000000000000000000000000000905090565b7f000000000000000000000000000000000000000000000000000000000000000073ffffffffffffffffffffffffffffffffffffffff163373ffffffffffffffffffffffffffffffffffffffff1614610843576040517f08c379a000000000000000000000000000000000000000000000000000000000815260040161083a9061123b565b60405180910390fd5b600160009054906101000a900460ff1615610893576040517f08c379a000000000000000000000000000000000000000000000000000000000815260040161088a906112a7565b60405180910390fd5b60018060006101000a81548160ff0219169083151502179055506005426108ba91906110de565b6000819055507f000000000000000000000000000000000000000000000000000000000000000073ffffffffffffffffffffffffffffffffffffffff166323b872dd7f0000000000000000000000000000000000000000000000000000000000000000307f00000000000000000000000000000000000000000000000000000000000000006040518463ffffffff1660e01b815260040161095d939291906112e8565b600060405180830381600087803b15801561097757600080fd5b505af115801561098b573d6000803e3d6000fd5b505050507ff06a29c94c6f4edc1085072972d9441f7603e81c8535a308f214285d0653c850426040516109be9190610f15565b60405180910390a1565b7f000000000000000000000000000000000000000000000000000000000000000081565b60025481565b600160009054906101000a900460ff16610a41576040517f08c379a0000000000000000000000000000000000000000000000000000000008152600401610a389061136b565b60405180910390fd5b60018054906101000a900460ff16610a8e576040517f08c379a0000000000000000000000000000000000000000000000000000000008152600401610a85906113d7565b60405180910390fd5b6000544211610ad2576040517f08c379a0000000000000000000000000000000000000000000000000000000008152600401610ac990611443565b60405180910390fd5b60018060016101000a81548160ff021916908315150217905550600073ffffffffffffffffffffffffffffffffffffffff16600160029054906101000a900473ffffffffffffffffffffffffffffffffffffffff1673ffffffffffffffffffffffffffffffffffffffff161415610c17577f000000000000000000000000000000000000000000000000000000000000000073ffffffffffffffffffffffffffffffffffffffff166323b872dd307f00000000000000000000000000000000000000000000000000000000000000007f00000000000000000000000000000000000000000000000000000000000000006040518463ffffffff1660e01b8152600401610be093929190611463565b600060405180830381600087803b158015610bfa57600080fd5b505af1158015610c0e573d6000803e3d6000fd5b50505050610d52565b7f000000000000000000000000000000000000000000000000000000000000000073ffffffffffffffffffffffffffffffffffffffff166323b872dd30600160029054906101000a900473ffffffffffffffffffffffffffffffffffffffff167f00000000000000000000000000000000000000000000000000000000000000006040518463ffffffff1660e01b8152600401610cb69392919061149a565b600060405180830381600087803b158015610cd057600080fd5b505af1158015610ce4573d6000803e3d6000fd5b505050507f000000000000000000000000000000000000000000000000000000000000000073ffffffffffffffffffffffffffffffffffffffff166108fc6002549081150290604051600060405180830381858888f19350505050158015610d50573d6000803e3d6000fd5b505b7f06e649079f276fcfc97b1e5cbfbb65937dac6a51ee164e3190e707e27ff345fa60405160405180910390a1565b600073ffffffffffffffffffffffffffffffffffffffff82169050919050565b6000610dab82610d80565b9050919050565b610dbb81610da0565b82525050565b6000602082019050610dd66000830184610db2565b92915050565b60008115159050919050565b610df181610ddc565b82525050565b6000602082019050610e0c6000830184610de8565b92915050565b6000819050919050565b6000610e37610e32610e2d84610d80565b610e12565b610d80565b9050919050565b6000610e4982610e1c565b9050919050565b6000610e5b82610e3e565b9050919050565b610e6b81610e50565b82525050565b6000602082019050610e866000830184610e62565b92915050565b600080fd5b6000610e9c82610d80565b9050919050565b610eac81610e91565b8114610eb757600080fd5b50565b600081359050610ec981610ea3565b92915050565b600060208284031215610ee557610ee4610e8c565b5b6000610ef384828501610eba565b91505092915050565b6000819050919050565b610f0f81610efc565b82525050565b6000602082019050610f2a6000830184610f06565b92915050565b610f3981610e91565b82525050565b6000602082019050610f546000830184610f30565b92915050565b600082825260208201905092915050565b7f5468652041756374696f6e20686173206e6f7420737461727465642079657421600082015250565b6000610fa1602083610f5a565b9150610fac82610f6b565b602082019050919050565b60006020820190508181036000830152610fd081610f94565b9050919050565b7f5468652041756374696f6e2068617320656e6465642100000000000000000000600082015250565b600061100d601683610f5a565b915061101882610fd7565b602082019050919050565b6000602082019050818103600083015261103c81611000565b9050919050565b7f426964206973206e6f74206869676820656e6f75676800000000000000000000600082015250565b6000611079601683610f5a565b915061108482611043565b602082019050919050565b600060208201905081810360008301526110a88161106c565b9050919050565b7f4e487b7100000000000000000000000000000000000000000000000000000000600052601160045260246000fd5b60006110e982610efc565b91506110f483610efc565b9250827fffffffffffffffffffffffffffffffffffffffffffffffffffffffffffffffff03821115611129576111286110af565b5b828201905092915050565b60006040820190506111496000830185610f30565b6111566020830184610f06565b9392505050565b7f48696768657374206269646465722063616e6e6f742077697468647261772100600082015250565b6000611193601f83610f5a565b915061119e8261115d565b602082019050919050565b600060208201905081810360008301526111c281611186565b9050919050565b7f4f6e6c792073656c6c65722063616e207374617274207468652041756374696f60008201527f6e21000000000000000000000000000000000000000000000000000000000000602082015250565b6000611225602283610f5a565b9150611230826111c9565b604082019050919050565b6000602082019050818103600083015261125481611218565b9050919050565b7f41756374696f6e20697320616c72656164792073746172746564000000000000600082015250565b6000611291601a83610f5a565b915061129c8261125b565b602082019050919050565b600060208201905081810360008301526112c081611284565b9050919050565b60006112d282610e3e565b9050919050565b6112e2816112c7565b82525050565b60006060820190506112fd60008301866112d9565b61130a6020830185610f30565b6113176040830184610f06565b949350505050565b7f41756374696f6e206e6f74207374617274656420796574210000000000000000600082015250565b6000611355601883610f5a565b91506113608261131f565b602082019050919050565b6000602082019050818103600083015261138481611348565b9050919050565b7f41756374696f6e206e6f7420656e646564207965742100000000000000000000600082015250565b60006113c1601683610f5a565b91506113cc8261138b565b602082019050919050565b600060208201905081810360008301526113f0816113b4565b9050919050565b7f43616e277420656e64206265666f726520746865207365742074696d65000000600082015250565b600061142d601d83610f5a565b9150611438826113f7565b602082019050919050565b6000602082019050818103600083015261145c81611420565b9050919050565b60006060820190506114786000830186610f30565b61148560208301856112d9565b6114926040830184610f06565b949350505050565b60006060820190506114af6000830186610f30565b6114bc6020830185610f30565b6114c96040830184610f06565b94935050505056fea26469706673582212209b596e9e12e5b9053bd61331c024e15f191391cc5ce61054c0db4e7aa4c10ee664736f6c634300080b0033",
  "immutableReferences": {
    "706": [
      {
        "length": 32,
        "start": 1831
      },
      {
        "length": 32,
        "start": 1937
      },
      {
        "length": 32,
        "start": 2242
      },
      {
        "length": 32,
        "start": 2885
      },
      {
        "length": 32,
        "start": 3097
      }
    ],
    "708": [
      {
        "length": 32,
        "start": 2336
      },
      {
        "length": 32,
        "start": 2506
      },
      {
        "length": 32,
        "start": 2979
      },
      {
        "length": 32,
        "start": 3193
      }
    ],
    "710": [
      {
        "length": 32,
        "start": 755
      },
      {
        "length": 32,
        "start": 1975
      },
      {
        "length": 32,
        "start": 2302
      },
      {
        "length": 32,
        "start": 2946
      },
      {
        "length": 32,
        "start": 3306
      }
    ]
  },
  "source": "// SPDX-License-Identifier: MIT\npragma solidity ^0.8.11;\n\nimport \"./NFT.sol\";\n\n/*\ninterface IERC721 {\n    function transferFrom(\n        address from,\n        address to,\n        uint256 tokenId\n        ) external;\n}\n*/\n\ncontract EnglishAuction {\n    IERC721 public immutable nft;\n    uint public immutable nftID;\n\n    address payable public immutable seller;\n    uint public endAt;\n    bool public started;\n    bool public ended;\n\n    address public highestBidder;\n    uint public highestBid;\n    \n    mapping(address => uint) public bids;\n\n    // Events\n    event Start(uint startingTime);\n    event Bid(address highestBidder, uint highestBid);\n    event Withdraw(address Bidder, uint Bid);\n    event End();\n    \n    constructor(\n        address _nft,\n        uint _nftID,\n        uint _startingBid\n    )\n    {\n        nft = IERC721(_nft);\n        nftID = _nftID;\n        seller = payable(msg.sender);\n        highestBid = _startingBid;\n    }\n\n    function start() external {\n        require(msg.sender == seller, \"Only seller can start the Auction!\");\n        require(!started, \"Auction is already started\");\n\n        started = true;\n        endAt = block.timestamp + 5;\n\n        nft.transferFrom(seller, address(this), nftID);\n\n        emit Start(block.timestamp);\n    }\n\n    function bid() external payable {\n        require(started, \"The Auction has not started yet!\");\n        require(block.timestamp < endAt, \"The Auction has ended!\");\n        require(msg.value > highestBid, \"Bid is not high enough\");\n\n        if (highestBidder != address(0)) {\n            bids[highestBidder] += highestBid;\n        }\n\n        highestBidder = msg.sender;\n        highestBid = msg.value;\n\n        emit Bid(highestBidder, highestBid);\n    }\n\n    function withdraw() external {\n        require(msg.sender != highestBidder,\n            \"Highest bidder cannot withdraw!\");\n\n        uint balance = bids[msg.sender];\n        bids[msg.sender] = 0;\n\n        payable(msg.sender).transfer(balance);\n\n        emit Withdraw(msg.sender, balance);\n    }\n\n    function end() external {\n        require(started, \"Auction not started yet!\");\n        require(ended, \"Auction not ended yet!\");\n        require(block.timestamp > endAt,\n            \"Can't end before the set time\");\n\n        ended = true;\n\n        if (highestBidder == address(0)) {\n            nft.transferFrom(address(this), seller, nftID);\n        } else {\n            nft.transferFrom(address(this), highestBidder, nftID);\n            seller.transfer(highestBid);\n        }\n        \n\n        emit End();\n\n    }\n\n    //  These functions are for testing only\n    function getNFTAddress()\n        public\n        view\n        returns(address)\n    {\n        return address(nft);\n    }\n\n}\n",
  "sourcePath": "/Users/shahriar/Desktop/Main/Learning/Blockchain/solidity/english_auction/contracts/english_auction.sol",
  "compiler": {
    "name": "solc",
    "version": "0.8.11+commit.d7f03943.Emscripten.clang"
  },
  "schemaVersion": "3.4.4",
  "updatedAt": "2022-02-13T12:41:06.246Z",
  "devdoc": {
    "kind": "dev",
    "methods": {},
    "version": 1
  },
  "userdoc": {
    "kind": "user",
    "methods": {},
    "version": 1
  }
}