{
  "contractName": "EnglishAuction",
  "abi": [
    {
      "inputs": [
        {
          "internalType": "address",
          "name": "_nft",
          "type": "address"
        },
        {
          "internalType": "uint256",
          "name": "_nftID",
          "type": "uint256"
        },
        {
          "internalType": "uint256",
          "name": "_startingBid",
          "type": "uint256"
        }
      ],
      "stateMutability": "nonpayable",
      "type": "constructor"
    },
    {
      "anonymous": false,
      "inputs": [
        {
          "indexed": false,
          "internalType": "address",
          "name": "highestBidder",
          "type": "address"
        },
        {
          "indexed": false,
          "internalType": "uint256",
          "name": "highestBid",
          "type": "uint256"
        }
      ],
      "name": "Bid",
      "type": "event"
    },
    {
      "anonymous": false,
      "inputs": [],
      "name": "End",
      "type": "event"
    },
    {
      "anonymous": false,
      "inputs": [
        {
          "indexed": false,
          "internalType": "uint256",
          "name": "startingTime",
          "type": "uint256"
        }
      ],
      "name": "Start",
      "type": "event"
    },
    {
      "anonymous": false,
      "inputs": [
        {
          "indexed": false,
          "internalType": "address",
          "name": "Bidder",
          "type": "address"
        },
        {
          "indexed": false,
          "internalType": "uint256",
          "name": "Bid",
          "type": "uint256"
        }
      ],
      "name": "Withdraw",
      "type": "event"
    },
    {
      "inputs": [
        {
          "internalType": "address",
          "name": "",
          "type": "address"
        }
      ],
      "name": "bids",
      "outputs": [
        {
          "internalType": "uint256",
          "name": "",
          "type": "uint256"
        }
      ],
      "stateMutability": "view",
      "type": "function"
    },
    {
      "inputs": [],
      "name": "endAt",
      "outputs": [
        {
          "internalType": "uint256",
          "name": "",
          "type": "uint256"
        }
      ],
      "stateMutability": "view",
      "type": "function"
    },
    {
      "inputs": [],
      "name": "ended",
      "outputs": [
        {
          "internalType": "bool",
          "name": "",
          "type": "bool"
        }
      ],
      "stateMutability": "view",
      "type": "function"
    },
    {
      "inputs": [],
      "name": "highestBid",
      "outputs": [
        {
          "internalType": "uint256",
          "name": "",
          "type": "uint256"
        }
      ],
      "stateMutability": "view",
      "type": "function"
    },
    {
      "inputs": [],
      "name": "highestBidder",
      "outputs": [
        {
          "internalType": "address",
          "name": "",
          "type": "address"
        }
      ],
      "stateMutability": "view",
      "type": "function"
    },
    {
      "inputs": [],
      "name": "nft",
      "outputs": [
        {
          "internalType": "contract IERC721",
          "name": "",
          "type": "address"
        }
      ],
      "stateMutability": "view",
      "type": "function"
    },
    {
      "inputs": [],
      "name": "nftID",
      "outputs": [
        {
          "internalType": "uint256",
          "name": "",
          "type": "uint256"
        }
      ],
      "stateMutability": "view",
      "type": "function"
    },
    {
      "inputs": [],
      "name": "seller",
      "outputs": [
        {
          "internalType": "address payable",
          "name": "",
          "type": "address"
        }
      ],
      "stateMutability": "view",
      "type": "function"
    },
    {
      "inputs": [],
      "name": "started",
      "outputs": [
        {
          "internalType": "bool",
          "name": "",
          "type": "bool"
        }
      ],
      "stateMutability": "view",
      "type": "function"
    },
    {
      "inputs": [],
      "name": "start",
      "outputs": [],
      "stateMutability": "nonpayable",
      "type": "function"
    },
    {
      "inputs": [],
      "name": "bid",
      "outputs": [],
      "stateMutability": "payable",
      "type": "function"
    },
    {
      "inputs": [],
      "name": "withdraw",
      "outputs": [],
      "stateMutability": "nonpayable",
      "type": "function"
    },
    {
      "inputs": [],
      "name": "end",
      "outputs": [],
      "stateMutability": "nonpayable",
      "type": "function"
    },
    {
      "inputs": [],
      "name": "getNFTAddress",
      "outputs": [
        {
          "internalType": "address",
          "name": "",
          "type": "address"
        }
      ],
      "stateMutability": "view",
      "type": "function"
    },
    {
      "inputs": [],
      "name": "auctionEnded",
      "outputs": [
        {
          "internalType": "bool",
          "name": "",
          "type": "bool"
        }
      ],
      "stateMutability": "view",
      "type": "function"
    }
  ],
  "bytecode": "0x60e06040523480156200001157600080fd5b506040516200177e3803806200177e83398181016040528101906200003791906200015c565b8273ffffffffffffffffffffffffffffffffffffffff1660808173ffffffffffffffffffffffffffffffffffffffff16815250508160a081815250503373ffffffffffffffffffffffffffffffffffffffff1660c08173ffffffffffffffffffffffffffffffffffffffff168152505080600281905550505050620001b8565b600080fd5b600073ffffffffffffffffffffffffffffffffffffffff82169050919050565b6000620000e982620000bc565b9050919050565b620000fb81620000dc565b81146200010757600080fd5b50565b6000815190506200011b81620000f0565b92915050565b6000819050919050565b620001368162000121565b81146200014257600080fd5b50565b60008151905062000156816200012b565b92915050565b600080600060608486031215620001785762000177620000b7565b5b600062000188868287016200010a565b93505060206200019b8682870162000145565b9250506040620001ae8682870162000145565b9150509250925092565b60805160a05160c0516115496200023560003960008181610329015281816107f80152818161093f01528181610bc40152610d2c01526000818161096101528181610a0b01528181610be50152610cbb01526000818161075d015281816107d20152818161090301528181610b870152610c5b01526115496000f3fe6080604052600436106100e85760003560e01c80637cc3ae8c1161008a578063be9a655511610059578063be9a6555146102a3578063c3994752146102ba578063d57bde79146102e5578063efbe1c1c14610310576100e8565b80637cc3ae8c146101f7578063864333741461022257806391f901571461024d578063b961847814610278576100e8565b80631f2698ab116100c65780631f2698ab1461014d5780633ccfd60b1461017857806347ccca021461018f57806362ea82db146101ba576100e8565b806308551a53146100ed57806312fa6feb146101185780631998aeef14610143575b600080fd5b3480156100f957600080fd5b50610102610327565b60405161010f9190610e03565b60405180910390f35b34801561012457600080fd5b5061012d61034b565b60405161013a9190610e39565b60405180910390f35b61014b61035c565b005b34801561015957600080fd5b506101626105ab565b60405161016f9190610e39565b60405180910390f35b34801561018457600080fd5b5061018d6105be565b005b34801561019b57600080fd5b506101a461075b565b6040516101b19190610eb3565b60405180910390f35b3480156101c657600080fd5b506101e160048036038101906101dc9190610f11565b61077f565b6040516101ee9190610f57565b60405180910390f35b34801561020357600080fd5b5061020c610797565b6040516102199190610f57565b60405180910390f35b34801561022e57600080fd5b5061023761079d565b6040516102449190610e39565b60405180910390f35b34801561025957600080fd5b506102626107a8565b60405161026f9190610f81565b60405180910390f35b34801561028457600080fd5b5061028d6107ce565b60405161029a9190610f81565b60405180910390f35b3480156102af57600080fd5b506102b86107f6565b005b3480156102c657600080fd5b506102cf610a09565b6040516102dc9190610f57565b60405180910390f35b3480156102f157600080fd5b506102fa610a2d565b6040516103079190610f57565b60405180910390f35b34801561031c57600080fd5b50610325610a33565b005b7f000000000000000000000000000000000000000000000000000000000000000081565b60018054906101000a900460ff1681565b600160009054906101000a900460ff166103ab576040517f08c379a00000000000000000000000000000000000000000000000000000000081526004016103a290610ff9565b60405180910390fd5b60005442106103ef576040517f08c379a00000000000000000000000000000000000000000000000000000000081526004016103e690611065565b60405180910390fd5b6002543411610433576040517f08c379a000000000000000000000000000000000000000000000000000000000815260040161042a906110d1565b60405180910390fd5b600073ffffffffffffffffffffffffffffffffffffffff16600160029054906101000a900473ffffffffffffffffffffffffffffffffffffffff1673ffffffffffffffffffffffffffffffffffffffff16146105045760025460036000600160029054906101000a900473ffffffffffffffffffffffffffffffffffffffff1673ffffffffffffffffffffffffffffffffffffffff1673ffffffffffffffffffffffffffffffffffffffff16815260200190815260200160002060008282546104fc9190611120565b925050819055505b33600160026101000a81548173ffffffffffffffffffffffffffffffffffffffff021916908373ffffffffffffffffffffffffffffffffffffffff160217905550346002819055507fe684a55f31b79eca403df938249029212a5925ec6be8012e099b45bc1019e5d2600160029054906101000a900473ffffffffffffffffffffffffffffffffffffffff166002546040516105a1929190611176565b60405180910390a1565b600160009054906101000a900460ff1681565b600160029054906101000a900473ffffffffffffffffffffffffffffffffffffffff1673ffffffffffffffffffffffffffffffffffffffff163373ffffffffffffffffffffffffffffffffffffffff16141561064f576040517f08c379a0000000000000000000000000000000000000000000000000000000008152600401610646906111eb565b60405180910390fd5b6000600360003373ffffffffffffffffffffffffffffffffffffffff1673ffffffffffffffffffffffffffffffffffffffff1681526020019081526020016000205490506000600360003373ffffffffffffffffffffffffffffffffffffffff1673ffffffffffffffffffffffffffffffffffffffff168152602001908152602001600020819055503373ffffffffffffffffffffffffffffffffffffffff166108fc829081150290604051600060405180830381858888f1935050505015801561071e573d6000803e3d6000fd5b507f884edad9ce6fa2440d8a54cc123490eb96d2768479d49ff9c7366125a94243643382604051610750929190611176565b60405180910390a150565b7f000000000000000000000000000000000000000000000000000000000000000081565b60036020528060005260406000206000915090505481565b60005481565b600080544211905090565b600160029054906101000a900473ffffffffffffffffffffffffffffffffffffffff1681565b60007f0000000000000000000000000000000000000000000000000000000000000000905090565b7f000000000000000000000000000000000000000000000000000000000000000073ffffffffffffffffffffffffffffffffffffffff163373ffffffffffffffffffffffffffffffffffffffff1614610884576040517f08c379a000000000000000000000000000000000000000000000000000000000815260040161087b9061127d565b60405180910390fd5b600160009054906101000a900460ff16156108d4576040517f08c379a00000000000000000000000000000000000000000000000000000000081526004016108cb906112e9565b60405180910390fd5b60018060006101000a81548160ff0219169083151502179055506005426108fb9190611120565b6000819055507f000000000000000000000000000000000000000000000000000000000000000073ffffffffffffffffffffffffffffffffffffffff166323b872dd7f0000000000000000000000000000000000000000000000000000000000000000307f00000000000000000000000000000000000000000000000000000000000000006040518463ffffffff1660e01b815260040161099e9392919061132a565b600060405180830381600087803b1580156109b857600080fd5b505af11580156109cc573d6000803e3d6000fd5b505050507ff06a29c94c6f4edc1085072972d9441f7603e81c8535a308f214285d0653c850426040516109ff9190610f57565b60405180910390a1565b7f000000000000000000000000000000000000000000000000000000000000000081565b60025481565b600160009054906101000a900460ff16610a82576040517f08c379a0000000000000000000000000000000000000000000000000000000008152600401610a79906113ad565b60405180910390fd5b60018054906101000a900460ff1615610ad0576040517f08c379a0000000000000000000000000000000000000000000000000000000008152600401610ac790611419565b60405180910390fd5b6000544211610b14576040517f08c379a0000000000000000000000000000000000000000000000000000000008152600401610b0b90611485565b60405180910390fd5b60018060016101000a81548160ff021916908315150217905550600073ffffffffffffffffffffffffffffffffffffffff16600160029054906101000a900473ffffffffffffffffffffffffffffffffffffffff1673ffffffffffffffffffffffffffffffffffffffff161415610c59577f000000000000000000000000000000000000000000000000000000000000000073ffffffffffffffffffffffffffffffffffffffff166323b872dd307f00000000000000000000000000000000000000000000000000000000000000007f00000000000000000000000000000000000000000000000000000000000000006040518463ffffffff1660e01b8152600401610c22939291906114a5565b600060405180830381600087803b158015610c3c57600080fd5b505af1158015610c50573d6000803e3d6000fd5b50505050610d94565b7f000000000000000000000000000000000000000000000000000000000000000073ffffffffffffffffffffffffffffffffffffffff166323b872dd30600160029054906101000a900473ffffffffffffffffffffffffffffffffffffffff167f00000000000000000000000000000000000000000000000000000000000000006040518463ffffffff1660e01b8152600401610cf8939291906114dc565b600060405180830381600087803b158015610d1257600080fd5b505af1158015610d26573d6000803e3d6000fd5b505050507f000000000000000000000000000000000000000000000000000000000000000073ffffffffffffffffffffffffffffffffffffffff166108fc6002549081150290604051600060405180830381858888f19350505050158015610d92573d6000803e3d6000fd5b505b7f06e649079f276fcfc97b1e5cbfbb65937dac6a51ee164e3190e707e27ff345fa60405160405180910390a1565b600073ffffffffffffffffffffffffffffffffffffffff82169050919050565b6000610ded82610dc2565b9050919050565b610dfd81610de2565b82525050565b6000602082019050610e186000830184610df4565b92915050565b60008115159050919050565b610e3381610e1e565b82525050565b6000602082019050610e4e6000830184610e2a565b92915050565b6000819050919050565b6000610e79610e74610e6f84610dc2565b610e54565b610dc2565b9050919050565b6000610e8b82610e5e565b9050919050565b6000610e9d82610e80565b9050919050565b610ead81610e92565b82525050565b6000602082019050610ec86000830184610ea4565b92915050565b600080fd5b6000610ede82610dc2565b9050919050565b610eee81610ed3565b8114610ef957600080fd5b50565b600081359050610f0b81610ee5565b92915050565b600060208284031215610f2757610f26610ece565b5b6000610f3584828501610efc565b91505092915050565b6000819050919050565b610f5181610f3e565b82525050565b6000602082019050610f6c6000830184610f48565b92915050565b610f7b81610ed3565b82525050565b6000602082019050610f966000830184610f72565b92915050565b600082825260208201905092915050565b7f5468652041756374696f6e20686173206e6f7420737461727465642079657421600082015250565b6000610fe3602083610f9c565b9150610fee82610fad565b602082019050919050565b6000602082019050818103600083015261101281610fd6565b9050919050565b7f5468652041756374696f6e2068617320656e6465642100000000000000000000600082015250565b600061104f601683610f9c565b915061105a82611019565b602082019050919050565b6000602082019050818103600083015261107e81611042565b9050919050565b7f426964206973206e6f74206869676820656e6f75676800000000000000000000600082015250565b60006110bb601683610f9c565b91506110c682611085565b602082019050919050565b600060208201905081810360008301526110ea816110ae565b9050919050565b7f4e487b7100000000000000000000000000000000000000000000000000000000600052601160045260246000fd5b600061112b82610f3e565b915061113683610f3e565b9250827fffffffffffffffffffffffffffffffffffffffffffffffffffffffffffffffff0382111561116b5761116a6110f1565b5b828201905092915050565b600060408201905061118b6000830185610f72565b6111986020830184610f48565b9392505050565b7f48696768657374206269646465722063616e6e6f742077697468647261772100600082015250565b60006111d5601f83610f9c565b91506111e08261119f565b602082019050919050565b60006020820190508181036000830152611204816111c8565b9050919050565b7f4f6e6c792073656c6c65722063616e207374617274207468652041756374696f60008201527f6e21000000000000000000000000000000000000000000000000000000000000602082015250565b6000611267602283610f9c565b91506112728261120b565b604082019050919050565b600060208201905081810360008301526112968161125a565b9050919050565b7f41756374696f6e20697320616c72656164792073746172746564000000000000600082015250565b60006112d3601a83610f9c565b91506112de8261129d565b602082019050919050565b60006020820190508181036000830152611302816112c6565b9050919050565b600061131482610e80565b9050919050565b61132481611309565b82525050565b600060608201905061133f600083018661131b565b61134c6020830185610f72565b6113596040830184610f48565b949350505050565b7f41756374696f6e206e6f74207374617274656420796574210000000000000000600082015250565b6000611397601883610f9c565b91506113a282611361565b602082019050919050565b600060208201905081810360008301526113c68161138a565b9050919050565b7f41756374696f6e20616c726561647920656e6465642079657421000000000000600082015250565b6000611403601a83610f9c565b915061140e826113cd565b602082019050919050565b60006020820190508181036000830152611432816113f6565b9050919050565b7f43616e277420656e64206265666f726520746865207365742074696d65000000600082015250565b600061146f601d83610f9c565b915061147a82611439565b602082019050919050565b6000602082019050818103600083015261149e81611462565b9050919050565b60006060820190506114ba6000830186610f72565b6114c7602083018561131b565b6114d46040830184610f48565b949350505050565b60006060820190506114f16000830186610f72565b6114fe6020830185610f72565b61150b6040830184610f48565b94935050505056fea2646970667358221220e788a9f7a01fa53b786e069e2f3316a83fd89bde6f7790d0540738727b72f54764736f6c634300080b0033",
  "immutableReferences": {
    "705": [
      {
        "length": 32,
        "start": 1885
      },
      {
        "length": 32,
        "start": 2002
      },
      {
        "length": 32,
        "start": 2307
      },
      {
        "length": 32,
        "start": 2951
      },
      {
        "length": 32,
        "start": 3163
      }
    ],
    "707": [
      {
        "length": 32,
        "start": 2401
      },
      {
        "length": 32,
        "start": 2571
      },
      {
        "length": 32,
        "start": 3045
      },
      {
        "length": 32,
        "start": 3259
      }
    ],
    "709": [
      {
        "length": 32,
        "start": 809
      },
      {
        "length": 32,
        "start": 2040
      },
      {
        "length": 32,
        "start": 2367
      },
      {
        "length": 32,
        "start": 3012
      },
      {
        "length": 32,
        "start": 3372
      }
    ]
  },
  "source": "// SPDX-License-Identifier: MIT\npragma solidity ^0.8.11;\n\nimport \"./NFT.sol\";\n\n/*\ninterface IERC721 {\n    function transferFrom(\n        address from,\n        address to,\n        uint256 tokenId\n        ) external;\n}\n*/\n\ncontract EnglishAuction {\n    IERC721 public immutable nft;\n    uint public immutable nftID;\n\n    address payable public immutable seller;\n    uint public endAt;\n    bool public started;\n    bool public ended;\n\n    address public highestBidder;\n    uint public highestBid;\n    \n    mapping(address => uint) public bids;\n\n    // Events\n    event Start(uint startingTime);\n    event Bid(address highestBidder, uint highestBid);\n    event Withdraw(address Bidder, uint Bid);\n    event End();\n    \n    constructor(\n        address _nft,\n        uint _nftID,\n        uint _startingBid\n    )\n    {\n        nft = IERC721(_nft);\n        nftID = _nftID;\n        seller = payable(msg.sender);\n        highestBid = _startingBid;\n    }\n\n    function start() external {\n        require(msg.sender == seller, \"Only seller can start the Auction!\");\n        require(!started, \"Auction is already started\");\n\n        started = true;\n        endAt = block.timestamp + 5;\n\n        nft.transferFrom(seller, address(this), nftID);\n\n        emit Start(block.timestamp);\n    }\n\n    function bid() external payable {\n        require(started, \"The Auction has not started yet!\");\n        require(block.timestamp < endAt, \"The Auction has ended!\");\n        require(msg.value > highestBid, \"Bid is not high enough\");\n\n        if (highestBidder != address(0)) {\n            bids[highestBidder] += highestBid;\n        }\n\n        highestBidder = msg.sender;\n        highestBid = msg.value;\n\n        emit Bid(highestBidder, highestBid);\n    }\n\n    function withdraw() external {\n        require(msg.sender != highestBidder,\n            \"Highest bidder cannot withdraw!\");\n\n        uint balance = bids[msg.sender];\n        bids[msg.sender] = 0;\n\n        payable(msg.sender).transfer(balance);\n\n        emit Withdraw(msg.sender, balance);\n    }\n\n    function end() external {\n        require(started, \"Auction not started yet!\");\n        require(!ended, \"Auction already ended yet!\");\n        require(block.timestamp > endAt,\n            \"Can't end before the set time\");\n\n        ended = true;\n\n        if (highestBidder == address(0)) {\n            nft.transferFrom(address(this), seller, nftID);\n        } else {\n            nft.transferFrom(address(this), highestBidder, nftID);\n            seller.transfer(highestBid);\n        }\n        \n\n        emit End();\n\n    }\n\n    //  These functions are for testing only\n    function getNFTAddress()\n        public\n        view\n        returns(address)\n    {\n        return address(nft);\n    }\n\n    // As Timeelapse is not synchronised between the contract\n    // and truffle, we need a way to find out when the auction has ended\n    function auctionEnded()\n        public\n        view\n        returns(bool)\n    {\n        return (block.timestamp > endAt);\n    }\n\n}\n",
  "sourcePath": "/Users/shahriar/Desktop/Main/Learning/Blockchain/solidity/english_auction/contracts/english_auction.sol",
  "compiler": {
    "name": "solc",
    "version": "0.8.11+commit.d7f03943.Emscripten.clang"
  },
  "schemaVersion": "3.4.4",
  "updatedAt": "2022-02-13T19:20:04.889Z",
  "devdoc": {
    "kind": "dev",
    "methods": {},
    "version": 1
  },
  "userdoc": {
    "kind": "user",
    "methods": {},
    "version": 1
  }
}