{
  "contractName": "ERC721",
  "abi": [
    {
      "anonymous": false,
      "inputs": [
        {
          "indexed": true,
          "internalType": "address",
          "name": "owner",
          "type": "address"
        },
        {
          "indexed": true,
          "internalType": "address",
          "name": "approved",
          "type": "address"
        },
        {
          "indexed": true,
          "internalType": "uint256",
          "name": "tokenId",
          "type": "uint256"
        }
      ],
      "name": "Approval",
      "type": "event"
    },
    {
      "anonymous": false,
      "inputs": [
        {
          "indexed": true,
          "internalType": "address",
          "name": "owner",
          "type": "address"
        },
        {
          "indexed": true,
          "internalType": "address",
          "name": "operator",
          "type": "address"
        },
        {
          "indexed": false,
          "internalType": "bool",
          "name": "approved",
          "type": "bool"
        }
      ],
      "name": "ApprovalForAll",
      "type": "event"
    },
    {
      "anonymous": false,
      "inputs": [
        {
          "indexed": true,
          "internalType": "address",
          "name": "from",
          "type": "address"
        },
        {
          "indexed": true,
          "internalType": "address",
          "name": "to",
          "type": "address"
        },
        {
          "indexed": true,
          "internalType": "uint256",
          "name": "tokenId",
          "type": "uint256"
        }
      ],
      "name": "Transfer",
      "type": "event"
    },
    {
      "inputs": [
        {
          "internalType": "bytes4",
          "name": "interfaceId",
          "type": "bytes4"
        }
      ],
      "name": "supportsInterface",
      "outputs": [
        {
          "internalType": "bool",
          "name": "",
          "type": "bool"
        }
      ],
      "stateMutability": "pure",
      "type": "function"
    },
    {
      "inputs": [
        {
          "internalType": "address",
          "name": "owner",
          "type": "address"
        }
      ],
      "name": "balanceOf",
      "outputs": [
        {
          "internalType": "uint256",
          "name": "",
          "type": "uint256"
        }
      ],
      "stateMutability": "view",
      "type": "function"
    },
    {
      "inputs": [
        {
          "internalType": "uint256",
          "name": "tokenId",
          "type": "uint256"
        }
      ],
      "name": "ownerOf",
      "outputs": [
        {
          "internalType": "address",
          "name": "owner",
          "type": "address"
        }
      ],
      "stateMutability": "view",
      "type": "function"
    },
    {
      "inputs": [
        {
          "internalType": "address",
          "name": "owner",
          "type": "address"
        },
        {
          "internalType": "address",
          "name": "operator",
          "type": "address"
        }
      ],
      "name": "isApprovedForAll",
      "outputs": [
        {
          "internalType": "bool",
          "name": "",
          "type": "bool"
        }
      ],
      "stateMutability": "view",
      "type": "function"
    },
    {
      "inputs": [
        {
          "internalType": "address",
          "name": "operator",
          "type": "address"
        },
        {
          "internalType": "bool",
          "name": "approved",
          "type": "bool"
        }
      ],
      "name": "setApprovalForAll",
      "outputs": [],
      "stateMutability": "nonpayable",
      "type": "function"
    },
    {
      "inputs": [
        {
          "internalType": "uint256",
          "name": "tokenId",
          "type": "uint256"
        }
      ],
      "name": "getApproved",
      "outputs": [
        {
          "internalType": "address",
          "name": "",
          "type": "address"
        }
      ],
      "stateMutability": "view",
      "type": "function"
    },
    {
      "inputs": [
        {
          "internalType": "address",
          "name": "to",
          "type": "address"
        },
        {
          "internalType": "uint256",
          "name": "tokenId",
          "type": "uint256"
        }
      ],
      "name": "approve",
      "outputs": [],
      "stateMutability": "nonpayable",
      "type": "function"
    },
    {
      "inputs": [
        {
          "internalType": "address",
          "name": "owner",
          "type": "address"
        },
        {
          "internalType": "address",
          "name": "spender",
          "type": "address"
        },
        {
          "internalType": "uint256",
          "name": "tokenId",
          "type": "uint256"
        }
      ],
      "name": "_isApprovedOrOwner",
      "outputs": [
        {
          "internalType": "bool",
          "name": "",
          "type": "bool"
        }
      ],
      "stateMutability": "view",
      "type": "function"
    },
    {
      "inputs": [
        {
          "internalType": "address",
          "name": "from",
          "type": "address"
        },
        {
          "internalType": "address",
          "name": "to",
          "type": "address"
        },
        {
          "internalType": "uint256",
          "name": "tokenId",
          "type": "uint256"
        }
      ],
      "name": "transferFrom",
      "outputs": [],
      "stateMutability": "nonpayable",
      "type": "function"
    },
    {
      "inputs": [
        {
          "internalType": "address",
          "name": "from",
          "type": "address"
        },
        {
          "internalType": "address",
          "name": "to",
          "type": "address"
        },
        {
          "internalType": "uint256",
          "name": "tokenId",
          "type": "uint256"
        }
      ],
      "name": "safeTransferFrom",
      "outputs": [],
      "stateMutability": "nonpayable",
      "type": "function"
    },
    {
      "inputs": [
        {
          "internalType": "address",
          "name": "from",
          "type": "address"
        },
        {
          "internalType": "address",
          "name": "to",
          "type": "address"
        },
        {
          "internalType": "uint256",
          "name": "tokenId",
          "type": "uint256"
        },
        {
          "internalType": "bytes",
          "name": "_data",
          "type": "bytes"
        }
      ],
      "name": "safeTransferFrom",
      "outputs": [],
      "stateMutability": "nonpayable",
      "type": "function"
    },
    {
      "inputs": [
        {
          "internalType": "address",
          "name": "to",
          "type": "address"
        },
        {
          "internalType": "uint256",
          "name": "tokenId",
          "type": "uint256"
        }
      ],
      "name": "mint",
      "outputs": [],
      "stateMutability": "nonpayable",
      "type": "function"
    },
    {
      "inputs": [
        {
          "internalType": "uint256",
          "name": "tokenId",
          "type": "uint256"
        }
      ],
      "name": "burn",
      "outputs": [],
      "stateMutability": "nonpayable",
      "type": "function"
    }
  ],
  "bytecode": "0x608060405234801561001057600080fd5b50611d50806100206000396000f3fe608060405234801561001057600080fd5b50600436106100cf5760003560e01c806342966c681161008c578063a22cb46511610066578063a22cb46514610220578063b88d4fde1461023c578063e985e9c514610258578063f7e6682814610288576100cf565b806342966c68146101a45780636352211e146101c057806370a08231146101f0576100cf565b806301ffc9a7146100d4578063081812fc14610104578063095ea7b31461013457806323b872dd1461015057806340c10f191461016c57806342842e0e14610188575b600080fd5b6100ee60048036038101906100e991906112c1565b6102b8565b6040516100fb9190611309565b60405180910390f35b61011e6004803603810190610119919061135a565b61038a565b60405161012b91906113c8565b60405180910390f35b61014e6004803603810190610149919061140f565b610468565b005b61016a6004803603810190610165919061144f565b6105ae565b005b6101866004803603810190610181919061140f565b610617565b005b6101a2600480360381019061019d919061144f565b61082f565b005b6101be60048036038101906101b9919061135a565b61084f565b005b6101da60048036038101906101d5919061135a565b610953565b6040516101e791906113c8565b60405180910390f35b61020a600480360381019061020591906114a2565b6109ff565b60405161021791906114de565b60405180910390f35b61023a60048036038101906102359190611525565b610ab7565b005b610256600480360381019061025191906116ab565b610bb4565b005b610272600480360381019061026d919061172e565b610c1f565b60405161027f9190611309565b60405180910390f35b6102a2600480360381019061029d919061144f565b610cb3565b6040516102af9190611309565b60405180910390f35b60007f80ac58cd000000000000000000000000000000000000000000000000000000007bffffffffffffffffffffffffffffffffffffffffffffffffffffffff1916827bffffffffffffffffffffffffffffffffffffffffffffffffffffffff1916148061038357507f01ffc9a7000000000000000000000000000000000000000000000000000000007bffffffffffffffffffffffffffffffffffffffffffffffffffffffff1916827bffffffffffffffffffffffffffffffffffffffffffffffffffffffff1916145b9050919050565b60008073ffffffffffffffffffffffffffffffffffffffff1660008084815260200190815260200160002060009054906101000a900473ffffffffffffffffffffffffffffffffffffffff1673ffffffffffffffffffffffffffffffffffffffff16141561042d576040517f08c379a0000000000000000000000000000000000000000000000000000000008152600401610424906117cb565b60405180910390fd5b6002600083815260200190815260200160002060009054906101000a900473ffffffffffffffffffffffffffffffffffffffff169050919050565b600080600083815260200190815260200160002060009054906101000a900473ffffffffffffffffffffffffffffffffffffffff1690508073ffffffffffffffffffffffffffffffffffffffff163373ffffffffffffffffffffffffffffffffffffffff16148061055f5750600360008273ffffffffffffffffffffffffffffffffffffffff1673ffffffffffffffffffffffffffffffffffffffff16815260200190815260200160002060003373ffffffffffffffffffffffffffffffffffffffff1673ffffffffffffffffffffffffffffffffffffffff16815260200190815260200160002060009054906101000a900460ff165b61059e576040517f08c379a000000000000000000000000000000000000000000000000000000000815260040161059590611837565b60405180910390fd5b6105a9818484610de7565b505050565b60006105b982610953565b90506105c6813284610cb3565b610605576040517f08c379a00000000000000000000000000000000000000000000000000000000081526004016105fc906118a3565b60405180910390fd5b61061181858585610e99565b50505050565b600073ffffffffffffffffffffffffffffffffffffffff168273ffffffffffffffffffffffffffffffffffffffff161415610687576040517f08c379a000000000000000000000000000000000000000000000000000000000815260040161067e9061190f565b60405180910390fd5b600073ffffffffffffffffffffffffffffffffffffffff1660008083815260200190815260200160002060009054906101000a900473ffffffffffffffffffffffffffffffffffffffff1673ffffffffffffffffffffffffffffffffffffffff1614610728576040517f08c379a000000000000000000000000000000000000000000000000000000000815260040161071f9061197b565b60405180910390fd5b60018060008473ffffffffffffffffffffffffffffffffffffffff1673ffffffffffffffffffffffffffffffffffffffff168152602001908152602001600020600082825461077791906119ca565b925050819055508160008083815260200190815260200160002060006101000a81548173ffffffffffffffffffffffffffffffffffffffff021916908373ffffffffffffffffffffffffffffffffffffffff160217905550808273ffffffffffffffffffffffffffffffffffffffff16600073ffffffffffffffffffffffffffffffffffffffff167fddf252ad1be2c89b69c2b068fc378daa952ba7f163c4a11628f55a4df523b3ef60405160405180910390a45050565b61084a83838360405180602001604052806000815250610bb4565b505050565b600061085a82610953565b905061086881600084610de7565b60018060008373ffffffffffffffffffffffffffffffffffffffff1673ffffffffffffffffffffffffffffffffffffffff16815260200190815260200160002060008282546108b79190611a20565b9250508190555060008083815260200190815260200160002060006101000a81549073ffffffffffffffffffffffffffffffffffffffff021916905581600073ffffffffffffffffffffffffffffffffffffffff168273ffffffffffffffffffffffffffffffffffffffff167fddf252ad1be2c89b69c2b068fc378daa952ba7f163c4a11628f55a4df523b3ef60405160405180910390a45050565b600080600083815260200190815260200160002060009054906101000a900473ffffffffffffffffffffffffffffffffffffffff169050600073ffffffffffffffffffffffffffffffffffffffff168173ffffffffffffffffffffffffffffffffffffffff1614156109fa576040517f08c379a00000000000000000000000000000000000000000000000000000000081526004016109f1906117cb565b60405180910390fd5b919050565b60008073ffffffffffffffffffffffffffffffffffffffff168273ffffffffffffffffffffffffffffffffffffffff161415610a70576040517f08c379a0000000000000000000000000000000000000000000000000000000008152600401610a6790611aa0565b60405180910390fd5b600160008373ffffffffffffffffffffffffffffffffffffffff1673ffffffffffffffffffffffffffffffffffffffff168152602001908152602001600020549050919050565b80600360003373ffffffffffffffffffffffffffffffffffffffff1673ffffffffffffffffffffffffffffffffffffffff16815260200190815260200160002060008473ffffffffffffffffffffffffffffffffffffffff1673ffffffffffffffffffffffffffffffffffffffff16815260200190815260200160002060006101000a81548160ff0219169083151502179055508173ffffffffffffffffffffffffffffffffffffffff163373ffffffffffffffffffffffffffffffffffffffff167f17307eab39ab6107e8899845ad3d59bd9653f200f220920489ca2b5937696c3183604051610ba89190611309565b60405180910390a35050565b6000610bbf83610953565b9050610bcc813285610cb3565b610c0b576040517f08c379a0000000000000000000000000000000000000000000000000000000008152600401610c02906118a3565b60405180910390fd5b610c1881868686866110e1565b5050505050565b6000600360008473ffffffffffffffffffffffffffffffffffffffff1673ffffffffffffffffffffffffffffffffffffffff16815260200190815260200160002060008373ffffffffffffffffffffffffffffffffffffffff1673ffffffffffffffffffffffffffffffffffffffff16815260200190815260200160002060009054906101000a900460ff16905092915050565b60008373ffffffffffffffffffffffffffffffffffffffff168373ffffffffffffffffffffffffffffffffffffffff161480610d4d57508273ffffffffffffffffffffffffffffffffffffffff166002600084815260200190815260200160002060009054906101000a900473ffffffffffffffffffffffffffffffffffffffff1673ffffffffffffffffffffffffffffffffffffffff16145b80610dde5750600360008573ffffffffffffffffffffffffffffffffffffffff1673ffffffffffffffffffffffffffffffffffffffff16815260200190815260200160002060008473ffffffffffffffffffffffffffffffffffffffff1673ffffffffffffffffffffffffffffffffffffffff16815260200190815260200160002060009054906101000a900460ff165b90509392505050565b816002600083815260200190815260200160002060006101000a81548173ffffffffffffffffffffffffffffffffffffffff021916908373ffffffffffffffffffffffffffffffffffffffff160217905550808273ffffffffffffffffffffffffffffffffffffffff168473ffffffffffffffffffffffffffffffffffffffff167f8c5be1e5ebec7d5bd14f71427d1e84f3dd0314c0f7b2291e5b200ac8c7c3b92560405160405180910390a4505050565b8373ffffffffffffffffffffffffffffffffffffffff168373ffffffffffffffffffffffffffffffffffffffff1614610f07576040517f08c379a0000000000000000000000000000000000000000000000000000000008152600401610efe90611b0c565b60405180910390fd5b600073ffffffffffffffffffffffffffffffffffffffff168273ffffffffffffffffffffffffffffffffffffffff161415610f77576040517f08c379a0000000000000000000000000000000000000000000000000000000008152600401610f6e90611b78565b60405180910390fd5b610f8384600083610de7565b60018060008573ffffffffffffffffffffffffffffffffffffffff1673ffffffffffffffffffffffffffffffffffffffff1681526020019081526020016000206000828254610fd29190611a20565b9250508190555060018060008473ffffffffffffffffffffffffffffffffffffffff1673ffffffffffffffffffffffffffffffffffffffff168152602001908152602001600020600082825461102891906119ca565b925050819055508160008083815260200190815260200160002060006101000a81548173ffffffffffffffffffffffffffffffffffffffff021916908373ffffffffffffffffffffffffffffffffffffffff160217905550808273ffffffffffffffffffffffffffffffffffffffff168473ffffffffffffffffffffffffffffffffffffffff167fddf252ad1be2c89b69c2b068fc378daa952ba7f163c4a11628f55a4df523b3ef60405160405180910390a450505050565b6110ed85858585610e99565b6110f98484848461113f565b611138576040517f08c379a000000000000000000000000000000000000000000000000000000000815260040161112f90611be4565b60405180910390fd5b5050505050565b60006111608473ffffffffffffffffffffffffffffffffffffffff16611242565b156112355763150b7a0260e01b7bffffffffffffffffffffffffffffffffffffffffffffffffffffffff19168473ffffffffffffffffffffffffffffffffffffffff1663150b7a02338887876040518563ffffffff1660e01b81526004016111cb9493929190611c8c565b6020604051808303816000875af11580156111ea573d6000803e3d6000fd5b505050506040513d601f19601f8201168201806040525081019061120e9190611ced565b7bffffffffffffffffffffffffffffffffffffffffffffffffffffffff191614905061123a565b600190505b949350505050565b600080823b905060008111915050919050565b6000604051905090565b600080fd5b600080fd5b60007fffffffff0000000000000000000000000000000000000000000000000000000082169050919050565b61129e81611269565b81146112a957600080fd5b50565b6000813590506112bb81611295565b92915050565b6000602082840312156112d7576112d661125f565b5b60006112e5848285016112ac565b91505092915050565b60008115159050919050565b611303816112ee565b82525050565b600060208201905061131e60008301846112fa565b92915050565b6000819050919050565b61133781611324565b811461134257600080fd5b50565b6000813590506113548161132e565b92915050565b6000602082840312156113705761136f61125f565b5b600061137e84828501611345565b91505092915050565b600073ffffffffffffffffffffffffffffffffffffffff82169050919050565b60006113b282611387565b9050919050565b6113c2816113a7565b82525050565b60006020820190506113dd60008301846113b9565b92915050565b6113ec816113a7565b81146113f757600080fd5b50565b600081359050611409816113e3565b92915050565b600080604083850312156114265761142561125f565b5b6000611434858286016113fa565b925050602061144585828601611345565b9150509250929050565b6000806000606084860312156114685761146761125f565b5b6000611476868287016113fa565b9350506020611487868287016113fa565b925050604061149886828701611345565b9150509250925092565b6000602082840312156114b8576114b761125f565b5b60006114c6848285016113fa565b91505092915050565b6114d881611324565b82525050565b60006020820190506114f360008301846114cf565b92915050565b611502816112ee565b811461150d57600080fd5b50565b60008135905061151f816114f9565b92915050565b6000806040838503121561153c5761153b61125f565b5b600061154a858286016113fa565b925050602061155b85828601611510565b9150509250929050565b600080fd5b600080fd5b6000601f19601f8301169050919050565b7f4e487b7100000000000000000000000000000000000000000000000000000000600052604160045260246000fd5b6115b88261156f565b810181811067ffffffffffffffff821117156115d7576115d6611580565b5b80604052505050565b60006115ea611255565b90506115f682826115af565b919050565b600067ffffffffffffffff82111561161657611615611580565b5b61161f8261156f565b9050602081019050919050565b82818337600083830152505050565b600061164e611649846115fb565b6115e0565b90508281526020810184848401111561166a5761166961156a565b5b61167584828561162c565b509392505050565b600082601f83011261169257611691611565565b5b81356116a284826020860161163b565b91505092915050565b600080600080608085870312156116c5576116c461125f565b5b60006116d3878288016113fa565b94505060206116e4878288016113fa565b93505060406116f587828801611345565b925050606085013567ffffffffffffffff81111561171657611715611264565b5b6117228782880161167d565b91505092959194509250565b600080604083850312156117455761174461125f565b5b6000611753858286016113fa565b9250506020611764858286016113fa565b9150509250929050565b600082825260208201905092915050565b7f746f6b656e20646f65736e277420657869737400000000000000000000000000600082015250565b60006117b560138361176e565b91506117c08261177f565b602082019050919050565b600060208201905081810360008301526117e4816117a8565b9050919050565b7f6e6f74206f776e6572206e6f7220617070726f76656420666f7220616c6c0000600082015250565b6000611821601e8361176e565b915061182c826117eb565b602082019050919050565b6000602082019050818103600083015261185081611814565b9050919050565b7f6e6f74206f776e6572206e6f7220617070726f76656400000000000000000000600082015250565b600061188d60168361176e565b915061189882611857565b602082019050919050565b600060208201905081810360008301526118bc81611880565b9050919050565b7f6d696e7420746f207a65726f2061646472657373000000000000000000000000600082015250565b60006118f960148361176e565b9150611904826118c3565b602082019050919050565b60006020820190508181036000830152611928816118ec565b9050919050565b7f746f6b656e20616c7265616479206d696e746564000000000000000000000000600082015250565b600061196560148361176e565b91506119708261192f565b602082019050919050565b6000602082019050818103600083015261199481611958565b9050919050565b7f4e487b7100000000000000000000000000000000000000000000000000000000600052601160045260246000fd5b60006119d582611324565b91506119e083611324565b9250827fffffffffffffffffffffffffffffffffffffffffffffffffffffffffffffffff03821115611a1557611a1461199b565b5b828201905092915050565b6000611a2b82611324565b9150611a3683611324565b925082821015611a4957611a4861199b565b5b828203905092915050565b7f6f776e6572203d207a65726f2061646472657373000000000000000000000000600082015250565b6000611a8a60148361176e565b9150611a9582611a54565b602082019050919050565b60006020820190508181036000830152611ab981611a7d565b9050919050565b7f6e6f74206f776e65720000000000000000000000000000000000000000000000600082015250565b6000611af660098361176e565b9150611b0182611ac0565b602082019050919050565b60006020820190508181036000830152611b2581611ae9565b9050919050565b7f7472616e7366657220746f20746865207a65726f206164647265737300000000600082015250565b6000611b62601c8361176e565b9150611b6d82611b2c565b602082019050919050565b60006020820190508181036000830152611b9181611b55565b9050919050565b7f6e6f742045524337323152656365697665720000000000000000000000000000600082015250565b6000611bce60128361176e565b9150611bd982611b98565b602082019050919050565b60006020820190508181036000830152611bfd81611bc1565b9050919050565b600081519050919050565b600082825260208201905092915050565b60005b83811015611c3e578082015181840152602081019050611c23565b83811115611c4d576000848401525b50505050565b6000611c5e82611c04565b611c688185611c0f565b9350611c78818560208601611c20565b611c818161156f565b840191505092915050565b6000608082019050611ca160008301876113b9565b611cae60208301866113b9565b611cbb60408301856114cf565b8181036060830152611ccd8184611c53565b905095945050505050565b600081519050611ce781611295565b92915050565b600060208284031215611d0357611d0261125f565b5b6000611d1184828501611cd8565b9150509291505056fea2646970667358221220cb8aca97271f41ae1d8330231caeb8239e02a690dc39256c8c304aebe5d5db1f64736f6c634300080b0033",
  "immutableReferences": {},
  "source": "// SPDX-License-Identifier: MIT\npragma solidity ^0.8.11;\n\ninterface IERC165 {\n    function supportsInterface(bytes4 interfaceID) external view returns (bool);\n}\n\ninterface IERC721 is IERC165 {\n    function balanceOf(address owner) external view returns (uint balance);\n\n    function ownerOf(uint tokenId) external view returns (address owner);\n\n    function safeTransferFrom(\n        address from,\n        address to,\n        uint tokenId\n    ) external;\n\n    function safeTransferFrom(\n        address from,\n        address to,\n        uint tokenId,\n        bytes calldata data\n    ) external;\n\n    function transferFrom(\n        address from,\n        address to,\n        uint tokenId\n    ) external;\n\n    function approve(address to, uint tokenId) external;\n\n    function getApproved(uint tokenId) external view returns (address operator);\n\n    function setApprovalForAll(address operator, bool _approved) external;\n\n    function isApprovedForAll(address owner, address operator)\n        external\n        view\n        returns (bool);\n}\n\ninterface IERC721Receiver {\n    function onERC721Received(\n        address operator,\n        address from,\n        uint tokenId,\n        bytes calldata data\n    ) external returns (bytes4);\n}\n\ncontract ERC721 is IERC721 {\n    using Address for address;\n\n    event Transfer(address indexed from, address indexed to, uint indexed tokenId);\n    event Approval(\n        address indexed owner,\n        address indexed approved,\n        uint indexed tokenId\n    );\n    event ApprovalForAll(\n        address indexed owner,\n        address indexed operator,\n        bool approved\n    );\n\n    // Mapping from token ID to owner address\n    mapping(uint => address) private _owners;\n\n    // Mapping owner address to token count\n    mapping(address => uint) private _balances;\n\n    // Mapping from token ID to approved address\n    mapping(uint => address) private _tokenApprovals;\n\n    // Mapping from owner to operator approvals\n    mapping(address => mapping(address => bool)) private _operatorApprovals;\n\n    function supportsInterface(bytes4 interfaceId)\n        external\n        pure\n        override\n        returns (bool)\n    {\n        return\n            interfaceId == type(IERC721).interfaceId ||\n            interfaceId == type(IERC165).interfaceId;\n    }\n\n    function balanceOf(address owner) external view override returns (uint) {\n        require(owner != address(0), \"owner = zero address\");\n        return _balances[owner];\n    }\n\n    function ownerOf(uint tokenId) public view override returns (address owner) {\n        owner = _owners[tokenId];\n        require(owner != address(0), \"token doesn't exist\");\n    }\n\n    function isApprovedForAll(address owner, address operator)\n        external\n        view\n        override\n        returns (bool)\n    {\n        return _operatorApprovals[owner][operator];\n    }\n\n    function setApprovalForAll(address operator, bool approved) external override {\n        _operatorApprovals[msg.sender][operator] = approved;\n        emit ApprovalForAll(msg.sender, operator, approved);\n    }\n\n    function getApproved(uint tokenId) external view override returns (address) {\n        require(_owners[tokenId] != address(0), \"token doesn't exist\");\n        return _tokenApprovals[tokenId];\n    }\n\n    function _approve(\n        address owner,\n        address to,\n        uint tokenId\n    ) private {\n        _tokenApprovals[tokenId] = to;\n        emit Approval(owner, to, tokenId);\n    }\n\n    function approve(address to, uint tokenId) external override {\n        address owner = _owners[tokenId];\n        require(\n            msg.sender == owner || _operatorApprovals[owner][msg.sender],\n            \"not owner nor approved for all\"\n        );\n        _approve(owner, to, tokenId);\n    }\n\n    function _isApprovedOrOwner(\n        address owner,\n        address spender,\n        uint tokenId\n    ) public view returns (bool) {\n        return (spender == owner ||\n            _tokenApprovals[tokenId] == spender ||\n            _operatorApprovals[owner][spender]);\n    }\n\n    function _transfer(\n        address owner,\n        address from,\n        address to,\n        uint tokenId\n    ) private {\n        require(from == owner, \"not owner\");\n        require(to != address(0), \"transfer to the zero address\");\n\n        _approve(owner, address(0), tokenId);\n\n        _balances[from] -= 1;\n        _balances[to] += 1;\n        _owners[tokenId] = to;\n\n        emit Transfer(from, to, tokenId);\n    }\n\n    function transferFrom(\n        address from,\n        address to,\n        uint tokenId\n    ) external override {\n        address owner = ownerOf(tokenId);\n        require(\n            _isApprovedOrOwner(owner, tx.origin, tokenId),\n            \"not owner nor approved\"\n        );\n        _transfer(owner, from, to, tokenId);\n    }\n\n    function _checkOnERC721Received(\n        address from,\n        address to,\n        uint tokenId,\n        bytes memory _data\n    ) private returns (bool) {\n        if (to.isContract()) {\n            return\n                IERC721Receiver(to).onERC721Received(\n                    msg.sender,\n                    from,\n                    tokenId,\n                    _data\n                ) == IERC721Receiver.onERC721Received.selector;\n        } else {\n            return true;\n        }\n    }\n\n    function _safeTransfer(\n        address owner,\n        address from,\n        address to,\n        uint tokenId,\n        bytes memory _data\n    ) private {\n        _transfer(owner, from, to, tokenId);\n        require(_checkOnERC721Received(from, to, tokenId, _data), \"not ERC721Receiver\");\n    }\n\n    function safeTransferFrom(\n        address from,\n        address to,\n        uint tokenId,\n        bytes memory _data\n    ) public override {\n        address owner = ownerOf(tokenId);\n        require(\n            _isApprovedOrOwner(owner, tx.origin, tokenId),\n            \"not owner nor approved\"\n        );\n        _safeTransfer(owner, from, to, tokenId, _data);\n    }\n\n    function safeTransferFrom(\n        address from,\n        address to,\n        uint tokenId\n    ) external override {\n        safeTransferFrom(from, to, tokenId, \"\");\n    }\n\n    function mint(address to, uint tokenId) external {\n        require(to != address(0), \"mint to zero address\");\n        require(_owners[tokenId] == address(0), \"token already minted\");\n\n        _balances[to] += 1;\n        _owners[tokenId] = to;\n\n        emit Transfer(address(0), to, tokenId);\n    }\n\n    function burn(uint tokenId) external {\n        address owner = ownerOf(tokenId);\n\n        _approve(owner, address(0), tokenId);\n\n        _balances[owner] -= 1;\n        delete _owners[tokenId];\n\n        emit Transfer(owner, address(0), tokenId);\n    }\n}\n\nlibrary Address {\n    function isContract(address account) internal view returns (bool) {\n        uint size;\n        assembly {\n            size := extcodesize(account)\n        }\n        return size > 0;\n    }\n}\n",
  "sourcePath": "/Users/shahriar/Desktop/Main/Learning/Blockchain/solidity/english_auction/contracts/NFT.sol",
  "compiler": {
    "name": "solc",
    "version": "0.8.11+commit.d7f03943.Emscripten.clang"
  },
  "schemaVersion": "3.4.4",
  "updatedAt": "2022-02-13T12:41:06.199Z",
  "devdoc": {
    "kind": "dev",
    "methods": {},
    "version": 1
  },
  "userdoc": {
    "kind": "user",
    "methods": {},
    "version": 1
  }
}