{
  "contractName": "ERC721",
  "abi": [
    {
      "anonymous": false,
      "inputs": [
        {
          "indexed": true,
          "internalType": "address",
          "name": "owner",
          "type": "address"
        },
        {
          "indexed": true,
          "internalType": "address",
          "name": "approved",
          "type": "address"
        },
        {
          "indexed": true,
          "internalType": "uint256",
          "name": "tokenId",
          "type": "uint256"
        }
      ],
      "name": "Approval",
      "type": "event"
    },
    {
      "anonymous": false,
      "inputs": [
        {
          "indexed": true,
          "internalType": "address",
          "name": "owner",
          "type": "address"
        },
        {
          "indexed": true,
          "internalType": "address",
          "name": "operator",
          "type": "address"
        },
        {
          "indexed": false,
          "internalType": "bool",
          "name": "approved",
          "type": "bool"
        }
      ],
      "name": "ApprovalForAll",
      "type": "event"
    },
    {
      "anonymous": false,
      "inputs": [
        {
          "indexed": true,
          "internalType": "address",
          "name": "owner",
          "type": "address"
        },
        {
          "indexed": true,
          "internalType": "address",
          "name": "caller",
          "type": "address"
        }
      ],
      "name": "CallerOwner",
      "type": "event"
    },
    {
      "anonymous": false,
      "inputs": [
        {
          "indexed": true,
          "internalType": "address",
          "name": "from",
          "type": "address"
        },
        {
          "indexed": true,
          "internalType": "address",
          "name": "to",
          "type": "address"
        },
        {
          "indexed": true,
          "internalType": "uint256",
          "name": "tokenId",
          "type": "uint256"
        }
      ],
      "name": "Transfer",
      "type": "event"
    },
    {
      "inputs": [
        {
          "internalType": "bytes4",
          "name": "interfaceId",
          "type": "bytes4"
        }
      ],
      "name": "supportsInterface",
      "outputs": [
        {
          "internalType": "bool",
          "name": "",
          "type": "bool"
        }
      ],
      "stateMutability": "pure",
      "type": "function"
    },
    {
      "inputs": [
        {
          "internalType": "address",
          "name": "owner",
          "type": "address"
        }
      ],
      "name": "balanceOf",
      "outputs": [
        {
          "internalType": "uint256",
          "name": "",
          "type": "uint256"
        }
      ],
      "stateMutability": "view",
      "type": "function"
    },
    {
      "inputs": [
        {
          "internalType": "uint256",
          "name": "tokenId",
          "type": "uint256"
        }
      ],
      "name": "ownerOf",
      "outputs": [
        {
          "internalType": "address",
          "name": "owner",
          "type": "address"
        }
      ],
      "stateMutability": "view",
      "type": "function"
    },
    {
      "inputs": [
        {
          "internalType": "address",
          "name": "owner",
          "type": "address"
        },
        {
          "internalType": "address",
          "name": "operator",
          "type": "address"
        }
      ],
      "name": "isApprovedForAll",
      "outputs": [
        {
          "internalType": "bool",
          "name": "",
          "type": "bool"
        }
      ],
      "stateMutability": "view",
      "type": "function"
    },
    {
      "inputs": [
        {
          "internalType": "address",
          "name": "operator",
          "type": "address"
        },
        {
          "internalType": "bool",
          "name": "approved",
          "type": "bool"
        }
      ],
      "name": "setApprovalForAll",
      "outputs": [],
      "stateMutability": "nonpayable",
      "type": "function"
    },
    {
      "inputs": [
        {
          "internalType": "uint256",
          "name": "tokenId",
          "type": "uint256"
        }
      ],
      "name": "getApproved",
      "outputs": [
        {
          "internalType": "address",
          "name": "",
          "type": "address"
        }
      ],
      "stateMutability": "view",
      "type": "function"
    },
    {
      "inputs": [
        {
          "internalType": "address",
          "name": "to",
          "type": "address"
        },
        {
          "internalType": "uint256",
          "name": "tokenId",
          "type": "uint256"
        }
      ],
      "name": "approve",
      "outputs": [],
      "stateMutability": "nonpayable",
      "type": "function"
    },
    {
      "inputs": [
        {
          "internalType": "address",
          "name": "owner",
          "type": "address"
        },
        {
          "internalType": "address",
          "name": "spender",
          "type": "address"
        },
        {
          "internalType": "uint256",
          "name": "tokenId",
          "type": "uint256"
        }
      ],
      "name": "_isApprovedOrOwner",
      "outputs": [
        {
          "internalType": "bool",
          "name": "",
          "type": "bool"
        }
      ],
      "stateMutability": "view",
      "type": "function"
    },
    {
      "inputs": [
        {
          "internalType": "address",
          "name": "from",
          "type": "address"
        },
        {
          "internalType": "address",
          "name": "to",
          "type": "address"
        },
        {
          "internalType": "uint256",
          "name": "tokenId",
          "type": "uint256"
        }
      ],
      "name": "transferFrom",
      "outputs": [],
      "stateMutability": "nonpayable",
      "type": "function"
    },
    {
      "inputs": [
        {
          "internalType": "address",
          "name": "from",
          "type": "address"
        },
        {
          "internalType": "address",
          "name": "to",
          "type": "address"
        },
        {
          "internalType": "uint256",
          "name": "tokenId",
          "type": "uint256"
        }
      ],
      "name": "safeTransferFrom",
      "outputs": [],
      "stateMutability": "nonpayable",
      "type": "function"
    },
    {
      "inputs": [
        {
          "internalType": "address",
          "name": "from",
          "type": "address"
        },
        {
          "internalType": "address",
          "name": "to",
          "type": "address"
        },
        {
          "internalType": "uint256",
          "name": "tokenId",
          "type": "uint256"
        },
        {
          "internalType": "bytes",
          "name": "_data",
          "type": "bytes"
        }
      ],
      "name": "safeTransferFrom",
      "outputs": [],
      "stateMutability": "nonpayable",
      "type": "function"
    },
    {
      "inputs": [
        {
          "internalType": "address",
          "name": "to",
          "type": "address"
        },
        {
          "internalType": "uint256",
          "name": "tokenId",
          "type": "uint256"
        }
      ],
      "name": "mint",
      "outputs": [],
      "stateMutability": "nonpayable",
      "type": "function"
    },
    {
      "inputs": [
        {
          "internalType": "uint256",
          "name": "tokenId",
          "type": "uint256"
        }
      ],
      "name": "burn",
      "outputs": [],
      "stateMutability": "nonpayable",
      "type": "function"
    }
  ],
  "bytecode": "0x608060405234801561001057600080fd5b50611ce2806100206000396000f3fe608060405234801561001057600080fd5b50600436106100cf5760003560e01c806342966c681161008c578063a22cb46511610066578063a22cb46514610220578063b88d4fde1461023c578063e985e9c514610258578063f7e6682814610288576100cf565b806342966c68146101a45780636352211e146101c057806370a08231146101f0576100cf565b806301ffc9a7146100d4578063081812fc14610104578063095ea7b31461013457806323b872dd1461015057806340c10f191461016c57806342842e0e14610188575b600080fd5b6100ee60048036038101906100e991906112bf565b6102b8565b6040516100fb9190611307565b60405180910390f35b61011e60048036038101906101199190611358565b61038a565b60405161012b91906113c6565b60405180910390f35b61014e6004803603810190610149919061140d565b610468565b005b61016a6004803603810190610165919061144d565b6105ae565b005b6101866004803603810190610181919061140d565b61065f565b005b6101a2600480360381019061019d919061144d565b610877565b005b6101be60048036038101906101b99190611358565b610897565b005b6101da60048036038101906101d59190611358565b61099b565b6040516101e791906113c6565b60405180910390f35b61020a600480360381019061020591906114a0565b610a47565b60405161021791906114dc565b60405180910390f35b61023a60048036038101906102359190611523565b610aff565b005b610256600480360381019061025191906116a9565b610bfc565b005b610272600480360381019061026d919061172c565b610c1d565b60405161027f9190611307565b60405180910390f35b6102a2600480360381019061029d919061144d565b610cb1565b6040516102af9190611307565b60405180910390f35b60007f80ac58cd000000000000000000000000000000000000000000000000000000007bffffffffffffffffffffffffffffffffffffffffffffffffffffffff1916827bffffffffffffffffffffffffffffffffffffffffffffffffffffffff1916148061038357507f01ffc9a7000000000000000000000000000000000000000000000000000000007bffffffffffffffffffffffffffffffffffffffffffffffffffffffff1916827bffffffffffffffffffffffffffffffffffffffffffffffffffffffff1916145b9050919050565b60008073ffffffffffffffffffffffffffffffffffffffff1660008084815260200190815260200160002060009054906101000a900473ffffffffffffffffffffffffffffffffffffffff1673ffffffffffffffffffffffffffffffffffffffff16141561042d576040517f08c379a0000000000000000000000000000000000000000000000000000000008152600401610424906117c9565b60405180910390fd5b6002600083815260200190815260200160002060009054906101000a900473ffffffffffffffffffffffffffffffffffffffff169050919050565b600080600083815260200190815260200160002060009054906101000a900473ffffffffffffffffffffffffffffffffffffffff1690508073ffffffffffffffffffffffffffffffffffffffff163373ffffffffffffffffffffffffffffffffffffffff16148061055f5750600360008273ffffffffffffffffffffffffffffffffffffffff1673ffffffffffffffffffffffffffffffffffffffff16815260200190815260200160002060003373ffffffffffffffffffffffffffffffffffffffff1673ffffffffffffffffffffffffffffffffffffffff16815260200190815260200160002060009054906101000a900460ff165b61059e576040517f08c379a000000000000000000000000000000000000000000000000000000000815260040161059590611835565b60405180910390fd5b6105a9818484610de5565b505050565b60006105b98261099b565b90503373ffffffffffffffffffffffffffffffffffffffff168173ffffffffffffffffffffffffffffffffffffffff167fe3e927842144e87e3a638ab0955d656326f104649486faf433a5420f74ec6d0960405160405180910390a38073ffffffffffffffffffffffffffffffffffffffff163373ffffffffffffffffffffffffffffffffffffffff161461064d57600080fd5b61065981858585610e97565b50505050565b600073ffffffffffffffffffffffffffffffffffffffff168273ffffffffffffffffffffffffffffffffffffffff1614156106cf576040517f08c379a00000000000000000000000000000000000000000000000000000000081526004016106c6906118a1565b60405180910390fd5b600073ffffffffffffffffffffffffffffffffffffffff1660008083815260200190815260200160002060009054906101000a900473ffffffffffffffffffffffffffffffffffffffff1673ffffffffffffffffffffffffffffffffffffffff1614610770576040517f08c379a00000000000000000000000000000000000000000000000000000000081526004016107679061190d565b60405180910390fd5b60018060008473ffffffffffffffffffffffffffffffffffffffff1673ffffffffffffffffffffffffffffffffffffffff16815260200190815260200160002060008282546107bf919061195c565b925050819055508160008083815260200190815260200160002060006101000a81548173ffffffffffffffffffffffffffffffffffffffff021916908373ffffffffffffffffffffffffffffffffffffffff160217905550808273ffffffffffffffffffffffffffffffffffffffff16600073ffffffffffffffffffffffffffffffffffffffff167fddf252ad1be2c89b69c2b068fc378daa952ba7f163c4a11628f55a4df523b3ef60405160405180910390a45050565b61089283838360405180602001604052806000815250610bfc565b505050565b60006108a28261099b565b90506108b081600084610de5565b60018060008373ffffffffffffffffffffffffffffffffffffffff1673ffffffffffffffffffffffffffffffffffffffff16815260200190815260200160002060008282546108ff91906119b2565b9250508190555060008083815260200190815260200160002060006101000a81549073ffffffffffffffffffffffffffffffffffffffff021916905581600073ffffffffffffffffffffffffffffffffffffffff168273ffffffffffffffffffffffffffffffffffffffff167fddf252ad1be2c89b69c2b068fc378daa952ba7f163c4a11628f55a4df523b3ef60405160405180910390a45050565b600080600083815260200190815260200160002060009054906101000a900473ffffffffffffffffffffffffffffffffffffffff169050600073ffffffffffffffffffffffffffffffffffffffff168173ffffffffffffffffffffffffffffffffffffffff161415610a42576040517f08c379a0000000000000000000000000000000000000000000000000000000008152600401610a39906117c9565b60405180910390fd5b919050565b60008073ffffffffffffffffffffffffffffffffffffffff168273ffffffffffffffffffffffffffffffffffffffff161415610ab8576040517f08c379a0000000000000000000000000000000000000000000000000000000008152600401610aaf90611a32565b60405180910390fd5b600160008373ffffffffffffffffffffffffffffffffffffffff1673ffffffffffffffffffffffffffffffffffffffff168152602001908152602001600020549050919050565b80600360003373ffffffffffffffffffffffffffffffffffffffff1673ffffffffffffffffffffffffffffffffffffffff16815260200190815260200160002060008473ffffffffffffffffffffffffffffffffffffffff1673ffffffffffffffffffffffffffffffffffffffff16815260200190815260200160002060006101000a81548160ff0219169083151502179055508173ffffffffffffffffffffffffffffffffffffffff163373ffffffffffffffffffffffffffffffffffffffff167f17307eab39ab6107e8899845ad3d59bd9653f200f220920489ca2b5937696c3183604051610bf09190611307565b60405180910390a35050565b6000610c078361099b565b9050610c1681868686866110df565b5050505050565b6000600360008473ffffffffffffffffffffffffffffffffffffffff1673ffffffffffffffffffffffffffffffffffffffff16815260200190815260200160002060008373ffffffffffffffffffffffffffffffffffffffff1673ffffffffffffffffffffffffffffffffffffffff16815260200190815260200160002060009054906101000a900460ff16905092915050565b60008373ffffffffffffffffffffffffffffffffffffffff168373ffffffffffffffffffffffffffffffffffffffff161480610d4b57508273ffffffffffffffffffffffffffffffffffffffff166002600084815260200190815260200160002060009054906101000a900473ffffffffffffffffffffffffffffffffffffffff1673ffffffffffffffffffffffffffffffffffffffff16145b80610ddc5750600360008573ffffffffffffffffffffffffffffffffffffffff1673ffffffffffffffffffffffffffffffffffffffff16815260200190815260200160002060008473ffffffffffffffffffffffffffffffffffffffff1673ffffffffffffffffffffffffffffffffffffffff16815260200190815260200160002060009054906101000a900460ff165b90509392505050565b816002600083815260200190815260200160002060006101000a81548173ffffffffffffffffffffffffffffffffffffffff021916908373ffffffffffffffffffffffffffffffffffffffff160217905550808273ffffffffffffffffffffffffffffffffffffffff168473ffffffffffffffffffffffffffffffffffffffff167f8c5be1e5ebec7d5bd14f71427d1e84f3dd0314c0f7b2291e5b200ac8c7c3b92560405160405180910390a4505050565b8373ffffffffffffffffffffffffffffffffffffffff168373ffffffffffffffffffffffffffffffffffffffff1614610f05576040517f08c379a0000000000000000000000000000000000000000000000000000000008152600401610efc90611a9e565b60405180910390fd5b600073ffffffffffffffffffffffffffffffffffffffff168273ffffffffffffffffffffffffffffffffffffffff161415610f75576040517f08c379a0000000000000000000000000000000000000000000000000000000008152600401610f6c90611b0a565b60405180910390fd5b610f8184600083610de5565b60018060008573ffffffffffffffffffffffffffffffffffffffff1673ffffffffffffffffffffffffffffffffffffffff1681526020019081526020016000206000828254610fd091906119b2565b9250508190555060018060008473ffffffffffffffffffffffffffffffffffffffff1673ffffffffffffffffffffffffffffffffffffffff1681526020019081526020016000206000828254611026919061195c565b925050819055508160008083815260200190815260200160002060006101000a81548173ffffffffffffffffffffffffffffffffffffffff021916908373ffffffffffffffffffffffffffffffffffffffff160217905550808273ffffffffffffffffffffffffffffffffffffffff168473ffffffffffffffffffffffffffffffffffffffff167fddf252ad1be2c89b69c2b068fc378daa952ba7f163c4a11628f55a4df523b3ef60405160405180910390a450505050565b6110eb85858585610e97565b6110f78484848461113d565b611136576040517f08c379a000000000000000000000000000000000000000000000000000000000815260040161112d90611b76565b60405180910390fd5b5050505050565b600061115e8473ffffffffffffffffffffffffffffffffffffffff16611240565b156112335763150b7a0260e01b7bffffffffffffffffffffffffffffffffffffffffffffffffffffffff19168473ffffffffffffffffffffffffffffffffffffffff1663150b7a02338887876040518563ffffffff1660e01b81526004016111c99493929190611c1e565b6020604051808303816000875af11580156111e8573d6000803e3d6000fd5b505050506040513d601f19601f8201168201806040525081019061120c9190611c7f565b7bffffffffffffffffffffffffffffffffffffffffffffffffffffffff1916149050611238565b600190505b949350505050565b600080823b905060008111915050919050565b6000604051905090565b600080fd5b600080fd5b60007fffffffff0000000000000000000000000000000000000000000000000000000082169050919050565b61129c81611267565b81146112a757600080fd5b50565b6000813590506112b981611293565b92915050565b6000602082840312156112d5576112d461125d565b5b60006112e3848285016112aa565b91505092915050565b60008115159050919050565b611301816112ec565b82525050565b600060208201905061131c60008301846112f8565b92915050565b6000819050919050565b61133581611322565b811461134057600080fd5b50565b6000813590506113528161132c565b92915050565b60006020828403121561136e5761136d61125d565b5b600061137c84828501611343565b91505092915050565b600073ffffffffffffffffffffffffffffffffffffffff82169050919050565b60006113b082611385565b9050919050565b6113c0816113a5565b82525050565b60006020820190506113db60008301846113b7565b92915050565b6113ea816113a5565b81146113f557600080fd5b50565b600081359050611407816113e1565b92915050565b600080604083850312156114245761142361125d565b5b6000611432858286016113f8565b925050602061144385828601611343565b9150509250929050565b6000806000606084860312156114665761146561125d565b5b6000611474868287016113f8565b9350506020611485868287016113f8565b925050604061149686828701611343565b9150509250925092565b6000602082840312156114b6576114b561125d565b5b60006114c4848285016113f8565b91505092915050565b6114d681611322565b82525050565b60006020820190506114f160008301846114cd565b92915050565b611500816112ec565b811461150b57600080fd5b50565b60008135905061151d816114f7565b92915050565b6000806040838503121561153a5761153961125d565b5b6000611548858286016113f8565b92505060206115598582860161150e565b9150509250929050565b600080fd5b600080fd5b6000601f19601f8301169050919050565b7f4e487b7100000000000000000000000000000000000000000000000000000000600052604160045260246000fd5b6115b68261156d565b810181811067ffffffffffffffff821117156115d5576115d461157e565b5b80604052505050565b60006115e8611253565b90506115f482826115ad565b919050565b600067ffffffffffffffff8211156116145761161361157e565b5b61161d8261156d565b9050602081019050919050565b82818337600083830152505050565b600061164c611647846115f9565b6115de565b90508281526020810184848401111561166857611667611568565b5b61167384828561162a565b509392505050565b600082601f8301126116905761168f611563565b5b81356116a0848260208601611639565b91505092915050565b600080600080608085870312156116c3576116c261125d565b5b60006116d1878288016113f8565b94505060206116e2878288016113f8565b93505060406116f387828801611343565b925050606085013567ffffffffffffffff81111561171457611713611262565b5b6117208782880161167b565b91505092959194509250565b600080604083850312156117435761174261125d565b5b6000611751858286016113f8565b9250506020611762858286016113f8565b9150509250929050565b600082825260208201905092915050565b7f746f6b656e20646f65736e277420657869737400000000000000000000000000600082015250565b60006117b360138361176c565b91506117be8261177d565b602082019050919050565b600060208201905081810360008301526117e2816117a6565b9050919050565b7f6e6f74206f776e6572206e6f7220617070726f76656420666f7220616c6c0000600082015250565b600061181f601e8361176c565b915061182a826117e9565b602082019050919050565b6000602082019050818103600083015261184e81611812565b9050919050565b7f6d696e7420746f207a65726f2061646472657373000000000000000000000000600082015250565b600061188b60148361176c565b915061189682611855565b602082019050919050565b600060208201905081810360008301526118ba8161187e565b9050919050565b7f746f6b656e20616c7265616479206d696e746564000000000000000000000000600082015250565b60006118f760148361176c565b9150611902826118c1565b602082019050919050565b60006020820190508181036000830152611926816118ea565b9050919050565b7f4e487b7100000000000000000000000000000000000000000000000000000000600052601160045260246000fd5b600061196782611322565b915061197283611322565b9250827fffffffffffffffffffffffffffffffffffffffffffffffffffffffffffffffff038211156119a7576119a661192d565b5b828201905092915050565b60006119bd82611322565b91506119c883611322565b9250828210156119db576119da61192d565b5b828203905092915050565b7f6f776e6572203d207a65726f2061646472657373000000000000000000000000600082015250565b6000611a1c60148361176c565b9150611a27826119e6565b602082019050919050565b60006020820190508181036000830152611a4b81611a0f565b9050919050565b7f6e6f74206f776e65720000000000000000000000000000000000000000000000600082015250565b6000611a8860098361176c565b9150611a9382611a52565b602082019050919050565b60006020820190508181036000830152611ab781611a7b565b9050919050565b7f7472616e7366657220746f20746865207a65726f206164647265737300000000600082015250565b6000611af4601c8361176c565b9150611aff82611abe565b602082019050919050565b60006020820190508181036000830152611b2381611ae7565b9050919050565b7f6e6f742045524337323152656365697665720000000000000000000000000000600082015250565b6000611b6060128361176c565b9150611b6b82611b2a565b602082019050919050565b60006020820190508181036000830152611b8f81611b53565b9050919050565b600081519050919050565b600082825260208201905092915050565b60005b83811015611bd0578082015181840152602081019050611bb5565b83811115611bdf576000848401525b50505050565b6000611bf082611b96565b611bfa8185611ba1565b9350611c0a818560208601611bb2565b611c138161156d565b840191505092915050565b6000608082019050611c3360008301876113b7565b611c4060208301866113b7565b611c4d60408301856114cd565b8181036060830152611c5f8184611be5565b905095945050505050565b600081519050611c7981611293565b92915050565b600060208284031215611c9557611c9461125d565b5b6000611ca384828501611c6a565b9150509291505056fea2646970667358221220f222a20071a7312c7044bd868fadcd1b3aea06e6e6a0e8ebb607849fa5b4a60e64736f6c634300080b0033",
  "immutableReferences": {},
  "source": "// SPDX-License-Identifier: MIT\npragma solidity ^0.8.11;\n\ninterface IERC165 {\n    function supportsInterface(bytes4 interfaceID) external view returns (bool);\n}\n\ninterface IERC721 is IERC165 {\n    function balanceOf(address owner) external view returns (uint balance);\n\n    function ownerOf(uint tokenId) external view returns (address owner);\n\n    function safeTransferFrom(\n        address from,\n        address to,\n        uint tokenId\n    ) external;\n\n    function safeTransferFrom(\n        address from,\n        address to,\n        uint tokenId,\n        bytes calldata data\n    ) external;\n\n    function transferFrom(\n        address from,\n        address to,\n        uint tokenId\n    ) external;\n\n    function approve(address to, uint tokenId) external;\n\n    function getApproved(uint tokenId) external view returns (address operator);\n\n    function setApprovalForAll(address operator, bool _approved) external;\n\n    function isApprovedForAll(address owner, address operator)\n        external\n        view\n        returns (bool);\n}\n\ninterface IERC721Receiver {\n    function onERC721Received(\n        address operator,\n        address from,\n        uint tokenId,\n        bytes calldata data\n    ) external returns (bytes4);\n}\n\ncontract ERC721 is IERC721 {\n    using Address for address;\n\n    event Transfer(address indexed from, address indexed to, uint indexed tokenId);\n    event Approval(\n        address indexed owner,\n        address indexed approved,\n        uint indexed tokenId\n    );\n    event ApprovalForAll(\n        address indexed owner,\n        address indexed operator,\n        bool approved\n    );\n\n    event CallerOwner(\n        address indexed owner, \n        address indexed caller);\n\n    // Mapping from token ID to owner address\n    mapping(uint => address) private _owners;\n\n    // Mapping owner address to token count\n    mapping(address => uint) private _balances;\n\n    // Mapping from token ID to approved address\n    mapping(uint => address) private _tokenApprovals;\n\n    // Mapping from owner to operator approvals\n    mapping(address => mapping(address => bool)) private _operatorApprovals;\n\n    function supportsInterface(bytes4 interfaceId)\n        external\n        pure\n        override\n        returns (bool)\n    {\n        return\n            interfaceId == type(IERC721).interfaceId ||\n            interfaceId == type(IERC165).interfaceId;\n    }\n\n    function balanceOf(address owner) external view override returns (uint) {\n        require(owner != address(0), \"owner = zero address\");\n        return _balances[owner];\n    }\n\n    function ownerOf(uint tokenId) public view override returns (address owner) {\n        owner = _owners[tokenId];\n        require(owner != address(0), \"token doesn't exist\");\n    }\n\n    function isApprovedForAll(address owner, address operator)\n        external\n        view\n        override\n        returns (bool)\n    {\n        return _operatorApprovals[owner][operator];\n    }\n\n    function setApprovalForAll(address operator, bool approved) external override {\n        _operatorApprovals[msg.sender][operator] = approved;\n        emit ApprovalForAll(msg.sender, operator, approved);\n    }\n\n    function getApproved(uint tokenId) external view override returns (address) {\n        require(_owners[tokenId] != address(0), \"token doesn't exist\");\n        return _tokenApprovals[tokenId];\n    }\n\n    function _approve(\n        address owner,\n        address to,\n        uint tokenId\n    ) private {\n        _tokenApprovals[tokenId] = to;\n        emit Approval(owner, to, tokenId);\n    }\n\n    function approve(address to, uint tokenId) external override {\n        address owner = _owners[tokenId];\n        require(\n            msg.sender == owner || _operatorApprovals[owner][msg.sender],\n            \"not owner nor approved for all\"\n        );\n        _approve(owner, to, tokenId);\n    }\n\n    function _isApprovedOrOwner(\n        address owner,\n        address spender,\n        uint tokenId\n    ) public view returns (bool) {\n        return (spender == owner ||\n            _tokenApprovals[tokenId] == spender ||\n            _operatorApprovals[owner][spender]);\n    }\n\n    function _transfer(\n        address owner,\n        address from,\n        address to,\n        uint tokenId\n    ) private {\n        require(from == owner, \"not owner\");\n        require(to != address(0), \"transfer to the zero address\");\n\n        _approve(owner, address(0), tokenId);\n\n        _balances[from] -= 1;\n        _balances[to] += 1;\n        _owners[tokenId] = to;\n\n        emit Transfer(from, to, tokenId);\n    }\n\n    function transferFrom(\n        address from,\n        address to,\n        uint tokenId\n    ) external override {\n        address owner = ownerOf(tokenId);\n        \n        emit CallerOwner(owner, msg.sender);\n\n        require(msg.sender == owner);\n        // require(\n        //     _isApprovedOrOwner(owner, tx.origin, tokenId),\n        //     \"not owner nor approved\"\n        // );\n        _transfer(owner, from, to, tokenId);\n    }\n\n    function _checkOnERC721Received(\n        address from,\n        address to,\n        uint tokenId,\n        bytes memory _data\n    ) private returns (bool) {\n        if (to.isContract()) {\n            return\n                IERC721Receiver(to).onERC721Received(\n                    msg.sender,\n                    from,\n                    tokenId,\n                    _data\n                ) == IERC721Receiver.onERC721Received.selector;\n        } else {\n            return true;\n        }\n    }\n\n    function _safeTransfer(\n        address owner,\n        address from,\n        address to,\n        uint tokenId,\n        bytes memory _data\n    ) private {\n        _transfer(owner, from, to, tokenId);\n        require(_checkOnERC721Received(from, to, tokenId, _data), \"not ERC721Receiver\");\n    }\n\n    function safeTransferFrom(\n        address from,\n        address to,\n        uint tokenId,\n        bytes memory _data\n    ) public override {\n        address owner = ownerOf(tokenId);\n        // require(\n        //     _isApprovedOrOwner(owner, tx.origin, tokenId),\n        //     \"not owner nor approved\"\n        // );\n        _safeTransfer(owner, from, to, tokenId, _data);\n    }\n\n    function safeTransferFrom(\n        address from,\n        address to,\n        uint tokenId\n    ) external override {\n        safeTransferFrom(from, to, tokenId, \"\");\n    }\n\n    function mint(address to, uint tokenId) external {\n        require(to != address(0), \"mint to zero address\");\n        require(_owners[tokenId] == address(0), \"token already minted\");\n\n        _balances[to] += 1;\n        _owners[tokenId] = to;\n\n        emit Transfer(address(0), to, tokenId);\n    }\n\n    function burn(uint tokenId) external {\n        address owner = ownerOf(tokenId);\n\n        _approve(owner, address(0), tokenId);\n\n        _balances[owner] -= 1;\n        delete _owners[tokenId];\n\n        emit Transfer(owner, address(0), tokenId);\n    }\n}\n\nlibrary Address {\n    function isContract(address account) internal view returns (bool) {\n        uint size;\n        assembly {\n            size := extcodesize(account)\n        }\n        return size > 0;\n    }\n}\n",
  "sourcePath": "/Users/shahriar/Desktop/Main/Learning/Blockchain/solidity/english_auction/contracts/NFT.sol",
  "compiler": {
    "name": "solc",
    "version": "0.8.11+commit.d7f03943.Emscripten.clang"
  },
  "schemaVersion": "3.4.4",
  "updatedAt": "2022-02-13T19:20:04.842Z",
  "devdoc": {
    "kind": "dev",
    "methods": {},
    "version": 1
  },
  "userdoc": {
    "kind": "user",
    "methods": {},
    "version": 1
  }
}