{
  "contractName": "TokenSwap",
  "abi": [
    {
      "inputs": [
        {
          "internalType": "address",
          "name": "_owner1",
          "type": "address"
        },
        {
          "internalType": "address",
          "name": "_token1",
          "type": "address"
        },
        {
          "internalType": "uint256",
          "name": "_amount1",
          "type": "uint256"
        },
        {
          "internalType": "address",
          "name": "_owner2",
          "type": "address"
        },
        {
          "internalType": "address",
          "name": "_token2",
          "type": "address"
        },
        {
          "internalType": "uint256",
          "name": "_amount2",
          "type": "uint256"
        }
      ],
      "stateMutability": "nonpayable",
      "type": "constructor"
    },
    {
      "inputs": [],
      "name": "owner1",
      "outputs": [
        {
          "internalType": "address",
          "name": "",
          "type": "address"
        }
      ],
      "stateMutability": "view",
      "type": "function"
    },
    {
      "inputs": [],
      "name": "owner2",
      "outputs": [
        {
          "internalType": "address",
          "name": "",
          "type": "address"
        }
      ],
      "stateMutability": "view",
      "type": "function"
    },
    {
      "inputs": [],
      "name": "token1",
      "outputs": [
        {
          "internalType": "contract IERC20",
          "name": "",
          "type": "address"
        }
      ],
      "stateMutability": "view",
      "type": "function"
    },
    {
      "inputs": [],
      "name": "token2",
      "outputs": [
        {
          "internalType": "contract IERC20",
          "name": "",
          "type": "address"
        }
      ],
      "stateMutability": "view",
      "type": "function"
    },
    {
      "inputs": [],
      "name": "swap",
      "outputs": [],
      "stateMutability": "nonpayable",
      "type": "function"
    }
  ],
  "bytecode": "0x60806040523480156200001157600080fd5b5060405162000e9038038062000e908339818101604052810190620000379190620001f9565b846000806101000a81548173ffffffffffffffffffffffffffffffffffffffff021916908373ffffffffffffffffffffffffffffffffffffffff16021790555081600160006101000a81548173ffffffffffffffffffffffffffffffffffffffff021916908373ffffffffffffffffffffffffffffffffffffffff16021790555085600260006101000a81548173ffffffffffffffffffffffffffffffffffffffff021916908373ffffffffffffffffffffffffffffffffffffffff16021790555082600360006101000a81548173ffffffffffffffffffffffffffffffffffffffff021916908373ffffffffffffffffffffffffffffffffffffffff160217905550836004819055508060058190555050505050505062000295565b600080fd5b600073ffffffffffffffffffffffffffffffffffffffff82169050919050565b6000620001868262000159565b9050919050565b620001988162000179565b8114620001a457600080fd5b50565b600081519050620001b8816200018d565b92915050565b6000819050919050565b620001d381620001be565b8114620001df57600080fd5b50565b600081519050620001f381620001c8565b92915050565b60008060008060008060c0878903121562000219576200021862000154565b5b60006200022989828a01620001a7565b96505060206200023c89828a01620001a7565b95505060406200024f89828a01620001e2565b94505060606200026289828a01620001a7565b93505060806200027589828a01620001a7565b92505060a06200028889828a01620001e2565b9150509295509295509295565b610beb80620002a56000396000f3fe608060405234801561001057600080fd5b50600436106100575760003560e01c806325be124e1461005c578063527097251461007a57806373688914146100985780638119c065146100b6578063d21220a7146100c0575b600080fd5b6100646100de565b6040516100719190610737565b60405180910390f35b610082610104565b60405161008f9190610773565b60405180910390f35b6100a061012a565b6040516100ad9190610773565b60405180910390f35b6100be610150565b005b6100c8610694565b6040516100d59190610737565b60405180910390f35b600160009054906101000a900473ffffffffffffffffffffffffffffffffffffffff1681565b600360009054906101000a900473ffffffffffffffffffffffffffffffffffffffff1681565b600260009054906101000a900473ffffffffffffffffffffffffffffffffffffffff1681565b600260009054906101000a900473ffffffffffffffffffffffffffffffffffffffff1673ffffffffffffffffffffffffffffffffffffffff163373ffffffffffffffffffffffffffffffffffffffff1614806101f95750600360009054906101000a900473ffffffffffffffffffffffffffffffffffffffff1673ffffffffffffffffffffffffffffffffffffffff163373ffffffffffffffffffffffffffffffffffffffff16145b610238576040517f08c379a000000000000000000000000000000000000000000000000000000000815260040161022f90610811565b60405180910390fd5b60045460008054906101000a900473ffffffffffffffffffffffffffffffffffffffff1673ffffffffffffffffffffffffffffffffffffffff1663dd62ed3e600260009054906101000a900473ffffffffffffffffffffffffffffffffffffffff16306040518363ffffffff1660e01b81526004016102b8929190610831565b602060405180830381865afa1580156102d5573d6000803e3d6000fd5b505050506040513d601f19601f820116820180604052508101906102f99190610895565b11610339576040517f08c379a000000000000000000000000000000000000000000000000000000000815260040161033090610934565b60405180910390fd5b600554600160009054906101000a900473ffffffffffffffffffffffffffffffffffffffff1673ffffffffffffffffffffffffffffffffffffffff1663dd62ed3e600360009054906101000a900473ffffffffffffffffffffffffffffffffffffffff16306040518363ffffffff1660e01b81526004016103bb929190610831565b602060405180830381865afa1580156103d8573d6000803e3d6000fd5b505050506040513d601f19601f820116820180604052508101906103fc9190610895565b1161043c576040517f08c379a0000000000000000000000000000000000000000000000000000000008152600401610433906109c6565b60405180910390fd5b60008060009054906101000a900473ffffffffffffffffffffffffffffffffffffffff1673ffffffffffffffffffffffffffffffffffffffff166323b872dd600260009054906101000a900473ffffffffffffffffffffffffffffffffffffffff16600360009054906101000a900473ffffffffffffffffffffffffffffffffffffffff166004546040518463ffffffff1660e01b81526004016104e2939291906109f5565b6020604051808303816000875af1158015610501573d6000803e3d6000fd5b505050506040513d601f19601f820116820180604052508101906105259190610a64565b905080610567576040517f08c379a000000000000000000000000000000000000000000000000000000000815260040161055e90610b03565b60405180910390fd5b600160009054906101000a900473ffffffffffffffffffffffffffffffffffffffff1673ffffffffffffffffffffffffffffffffffffffff166323b872dd600360009054906101000a900473ffffffffffffffffffffffffffffffffffffffff16600260009054906101000a900473ffffffffffffffffffffffffffffffffffffffff166005546040518463ffffffff1660e01b815260040161060c939291906109f5565b6020604051808303816000875af115801561062b573d6000803e3d6000fd5b505050506040513d601f19601f8201168201806040525081019061064f9190610a64565b905080610691576040517f08c379a000000000000000000000000000000000000000000000000000000000815260040161068890610b95565b60405180910390fd5b50565b60008054906101000a900473ffffffffffffffffffffffffffffffffffffffff1681565b600073ffffffffffffffffffffffffffffffffffffffff82169050919050565b6000819050919050565b60006106fd6106f86106f3846106b8565b6106d8565b6106b8565b9050919050565b600061070f826106e2565b9050919050565b600061072182610704565b9050919050565b61073181610716565b82525050565b600060208201905061074c6000830184610728565b92915050565b600061075d826106b8565b9050919050565b61076d81610752565b82525050565b60006020820190506107886000830184610764565b92915050565b600082825260208201905092915050565b7f4f6e6c7920746f6b656e206f776e6572732061726520617574686f726973656460008201527f20666f72207377617020616374696f6e00000000000000000000000000000000602082015250565b60006107fb60308361078e565b91506108068261079f565b604082019050919050565b6000602082019050818103600083015261082a816107ee565b9050919050565b60006040820190506108466000830185610764565b6108536020830184610764565b9392505050565b600080fd5b6000819050919050565b6108728161085f565b811461087d57600080fd5b50565b60008151905061088f81610869565b92915050565b6000602082840312156108ab576108aa61085a565b5b60006108b984828501610880565b91505092915050565b7f4e6f7420616c6c6f77656420666f72207468697320616d6f756e74206f66207460008201527f6f6b656e31000000000000000000000000000000000000000000000000000000602082015250565b600061091e60258361078e565b9150610929826108c2565b604082019050919050565b6000602082019050818103600083015261094d81610911565b9050919050565b7f4e6f7420616c6c6f77656420666f72207468697320616d6f756e74206f66207460008201527f6f6b656e32000000000000000000000000000000000000000000000000000000602082015250565b60006109b060258361078e565b91506109bb82610954565b604082019050919050565b600060208201905081810360008301526109df816109a3565b9050919050565b6109ef8161085f565b82525050565b6000606082019050610a0a6000830186610764565b610a176020830185610764565b610a2460408301846109e6565b949350505050565b60008115159050919050565b610a4181610a2c565b8114610a4c57600080fd5b50565b600081519050610a5e81610a38565b92915050565b600060208284031215610a7a57610a7961085a565b5b6000610a8884828501610a4f565b91505092915050565b7f53656e64696e6720746f6b656e2066726f6d206f776e65723120746f206f776e60008201527f657232206661696c656400000000000000000000000000000000000000000000602082015250565b6000610aed602a8361078e565b9150610af882610a91565b604082019050919050565b60006020820190508181036000830152610b1c81610ae0565b9050919050565b7f53656e64696e6720746f6b656e2066726f6d206f776e65723220746f206f776e60008201527f657231206661696c656400000000000000000000000000000000000000000000602082015250565b6000610b7f602a8361078e565b9150610b8a82610b23565b604082019050919050565b60006020820190508181036000830152610bae81610b72565b905091905056fea2646970667358221220db791b4b64526195705b2bad94be87ca5287efe20baf50f7bcff33f43c00a4be64736f6c634300080b0033",
  "immutableReferences": {},
  "source": "// SPDX-License-Identifier: MIT\npragma solidity ^0.8.10;\n\n// Import ERC-20 from OpenZeppelin\nimport \"@openzeppelin/contracts/token/ERC20/ERC20.sol\";\n\ncontract TokenSwap {\n    IERC20 public token1;\n    IERC20 public token2;\n    address public owner1;\n    address public owner2;\n    uint amount1;\n    uint amount2;\n\n    constructor(\n        address _owner1,\n        address _token1,\n        uint _amount1,\n        address _owner2,\n        address _token2,\n        uint _amount2\n    )\n    {\n        token1 = IERC20(_token1);\n        token2 = IERC20(_token2);\n\n        owner1 = _owner1;\n        owner2 = _owner2;\n\n        amount1 = _amount1;\n        amount2 = _amount2;\n    }\n\n    function swap() public {\n        require(msg.sender == owner1 || msg.sender == owner2,\n            \"Only token owners are authorised for swap action\");\n\n        require(token1.allowance(owner1, address(this)) > amount1,\n            \"Not allowed for this amount of token1\");\n\n        require(token2.allowance(owner2, address(this)) > amount2,\n            \"Not allowed for this amount of token2\");\n\n        bool sent;\n\n        sent = token1.transferFrom(owner1, owner2, amount1);\n        require(sent, \"Sending token from owner1 to owner2 failed\");\n        \n        sent = token2.transferFrom(owner2, owner1, amount2);\n        require(sent, \"Sending token from owner2 to owner1 failed\");\n    }\n\n}\n\ncontract MyToken is ERC20 {\n    constructor(string memory name, string memory symbol) ERC20(name, symbol) {\n        // Mint 100 tokens to msg.sender\n        // Similar to how\n        // 1 dollar = 100 cents\n        // 1 token = 1 * (10 ** decimals)\n        _mint(msg.sender, 100 * 10**uint(decimals()));\n    }\n}\n",
  "sourcePath": "/Users/shahriar/Desktop/Main/Learning/Blockchain/solidity/ERC-20/contracts/TokenSwap.sol",
  "compiler": {
    "name": "solc",
    "version": "0.8.11+commit.d7f03943.Emscripten.clang"
  },
  "schemaVersion": "3.4.4",
  "updatedAt": "2022-02-09T09:01:51.183Z",
  "devdoc": {
    "kind": "dev",
    "methods": {},
    "version": 1
  },
  "userdoc": {
    "kind": "user",
    "methods": {},
    "version": 1
  }
}